:100000000C94D5000C94F6000C94F6000C9432017C
:100010000C94F6000C94F6000C94F6000C94F60088
:100020000C94F6000C94F6000C94F6000C94F60078
:100030000C94F6000C94F6000C94F6000C94F60068
:100040000C94F6000C94F6000C94F6000C94F60058
:100050000C94F6000C94F6000C94F6000C94F60048
:100060000C94F6000C94F6000C94F6000C94F60038
:100070000C94F6000C94F6000C94F6000C94F60028
:100080000C94A3010C94F6000C94F6000C94F6006A
:100090000C94F6000C94F6000C94F6000C94D70423
:1000A0000C94F6000C94F6000C94F6000C94F600F8
:1000B0000C94F6000C94F6000C94F6000C94F600E8
:1000C0000C94F6000C94F6000C94F6000C94F600D8
:1000D0000C94F6000C94F6000C94F6000C94F600C8
:1000E0000C94F600FA0450055005500550055005D3
:1000F00050055005FA0450055005500550055005AF
:1001000050055005FC04500550055005500550059C
:100110005005500550055005500550055005500537
:1001200050055005FC04500550055005500550057C
:100130005005500550055005500550055005500517
:10014000500550054C05500550055005500550050B
:100150005005500525055005500550055005500522
:1001600050055005500550055005500550055005E7
:10017000500550051905500550055005500550050E
:100180005005500537050C944C050C94FC040C9458
:1001900019050C9450050C943A040C94FA040C9430
:1001A00025050C9437050C94440411241FBECFEF91
:1001B000D1E2DEBFCDBF00E00CBF13E0A0E0B2E0B3
:1001C000ECEFF5E100E00BBF02C007900D92AC38F8
:1001D000B107D9F723E0ACE8B3E001C01D92A13B21
:1001E000B207E1F70E94F8000C94FC0A0C9400009E
:1001F000249A2C9A0E94D3060E944A040E94F0017D
:1002000078940E946A050E9493050E940B040E9444
:1002100041030E941F030E94C7050E9408070E9415
:100220006B070E944B072FEF81EE94E02150804036
:100230009040E1F700C0000080918C0390918D0305
:100240009C01215031092230310518F40E941F070A
:10025000EACF892B41F780E80E94DD0180E00E940F
:10026000C405E1CF1F920F920FB60F9211240BB667
:100270000F922F933F934F935F936F937F938F933F
:100280009F93AF93BF93EF93FF93CF93DF93CDB73C
:10029000DEB72A97DEBFCDBF61E0CE0101960E9496
:1002A000B8028C819B819330D9F028F4913041F0D1
:1002B000923049F02DC09430F1F0953029F128C0EA
:1002C0000E94DD0125C021E030E030938D032093B2
:1002D0008C0380938E038E8190E00E94CA0518C023
:1002E0008430B1F48D81853099F481E192E00E94EF
:1002F0007C092C980DC00E94870682E090E09093C4
:100300008D0380938C0304C010928D0310928C0394
:100310002A960FB6F894DEBF0FBECDBFDF91CF9106
:10032000FF91EF91BF91AF919F918F917F916F91CD
:100330005F914F913F912F910F900BBE0F900FBE89
:100340000F901F9018951F920F920FB60F921124C5
:100350000BB60F922F933F934F935F936F937F93BF
:100360008F939F93AF93BF93EF93FF9380918C03F1
:1003700090918D038130910529F480918E030E9424
:10038000D30504C0029711F40E948E0710929500C5
:1003900010929400FF91EF91BF91AF919F918F9137
:1003A0007F916F915F914F913F912F910F900BBE75
:1003B0000F900FBE0F901F90189590E09C01220F98
:1003C000331F880F991F880F991F880F991F820F5D
:1003D000931F8C5C984F90938900809388000895B8
:1003E000259AA0E8B0E08C9182608C93E1E8F0E07F
:1003F0008081886080838081806180838C91806827
:100400008C938FEF9FE79093890080938800808181
:10041000826080838FEF9FE99093870080938600AE
:1004200080E88093A4030E94DD018EE192E00E94A7
:100430007C090895813071F48091A403863018F40A
:100440001092A40303C085508093A4038091A40359
:100450000E94DD010895813079F48091A4038A3FE0
:1004600020F08FEF8093A40303C08B5F8093A403DD
:100470008091A4030E94DD01089580E30E94580347
:1004800086958695869591E08927817090E00895FC
:1004900080E30E94580384FF07C08FE292E00E942D
:1004A0007C098FEF9FEF089580E30E94580385FF3A
:1004B00007C08BE592E00E947C098EEF9FEF0895C4
:1004C00080E090E00895EF92FF920F931F93CF93F7
:1004D000DF937C0143E063E080E30E94E2030E943B
:1004E0003D02892B91F1F7016081669566956695CD
:1004F00081E30E944403F70160816295660F607E8C
:1005000082E30E944403F70161816F7085E30E94DA
:100510004403F7018181882399F087010E5F1F4F03
:10052000C0E0D0E0F80161918F018C2F8A5C0E94BD
:1005300044032196F701218130E0C217D30794F3D9
:100540000E94CC0380E090E006C00E944802009721
:1005500011F00E944802DF91CF911F910F91FF90FF
:10056000EF90089540E061E08CE20E94E20308957C
:10057000AF92BF92CF92DF92EF92FF920F931F93B1
:10058000CF93DF93CDB7DEB72A970FB6F894DEBFCF
:100590000FBECDBF5C0181E30E945803D82E82E3D9
:1005A0000E945803DD0CDD0CDD0C8295869587706A
:1005B000D82A85E60E9458038F70C82E81F07E01EC
:1005C00083E0E80EF11C06E60C0D16E6812F0E9472
:1005D0005803F70181937F011F5F1013F7CF0E942B
:1005E000B202D982CA828AE0FE013196D501019019
:1005F0000D928A95E1F7C5012A960FB6F894DEBFF1
:100600000FBECDBFDF91CF911F910F91FF90EF9063
:10061000DF90CF90BF90AF9008954FEF61E08BE2F5
:100620000E94E203EA98E9E6F0E08081806280833C
:1006300080818F7E8083EA9A5A9A789408954FEF4A
:1006400060E680E60E94E20360E08FE00E944403DF
:100650000E940D0380E992E00E947C0908950E94A7
:10066000240480EC0E9417040E9427048FE493EC7A
:100670000197F1F700C0000081EA92E00E947C0936
:1006800008950E942F030895CF93DF93D82FC62F8C
:100690000E94240482E00E9417048D2F0E941704F8
:1006A0008C2F0E9417040E942704DF91CF91089598
:1006B000CF93C82F0E94240483E00E9417048C2F3C
:1006C0000E9417040E941C04C82F0E9427048C2F2C
:1006D000CF910895FF920F931F93CF93DF938C01D7
:1006E000F62E0E94240480E90E941704FF2049F09E
:1006F000E8010F0D111D0E941C048993C017D1073A
:10070000D1F70E942704DF91CF911F910F91FF90A5
:1007100008958F929F92AF92BF92CF92DF92EF9205
:10072000FF920F931F93CF93DF93822E932EA42ECD
:10073000B52EC62ED72EE82EF92E0E94240480E472
:100740000E941704C0E0D0E08E011127000F111F96
:10075000000F111F000F111F282D392D4A2D5B2D61
:100760006C2D7D2D8E2D9F2D0E94D007822F0E94F3
:1007700017042196C830D10539F70E942704DF916C
:10078000CF911F910F91FF90EF90DF90CF90BF908E
:10079000AF909F908F9008950E94240481E80E945A
:1007A00017040E9427040895CF930E94240480EA2E
:1007B0000E9417040E941C04C82F0E9427048C2F3B
:1007C000CF9108951F93CF93DF93182FD62FC42F67
:1007D0000E94240485E00E941704812F0E941704C0
:1007E0008D2F0E9417048C2F0E9417040E9427044B
:1007F000DF91CF911F9108950F931F9310E0000F89
:10080000111F000F111F000F111F0E94D007822F10
:100810001F910F910895229A219A279A209A23983E
:1008200081E58CBD82EB92E00E947C0908958EBD2B
:100830000DB407FEFDCF089580E00E9417040DB4AB
:1008400007FEFDCF8EB508952F982F9808952F9A03
:100850002F9A08950E940B040E94240480E50E94B0
:1008600017040E9427048FE99FE00197F1F700C069
:100870000000F2CFE0ECF0E0908195FFFDCF809397
:10088000C60080E090E008958091C0008091C6008D
:1008900090E008951092C50087E68093C400E1ECD3
:1008A000F0E0808188618083E2ECF0E080818E60FE
:1008B000808364E474E08AE394E00E9431099093B9
:1008C000A6038093A50383EC92E00E947C0908951F
:1008D0008CE08093B8008FEF8093BB0084E080931E
:1008E000BC0085ED92E00E947C0908958091BC00D7
:1008F00081700895ECEBF0E0808180FDFDCF809168
:1009000000020895CF93DF93EC01ECEBF0E09081CF
:1009100090FDFDCF6093910398819093920390FD99
:1009200013C0623088F0FE013196A3E9B3E0625053
:10093000262F30E02E5F3F4FCE01820F931F219173
:100940002D93E817F907D9F710928F0388EF80935A
:10095000000285EA8093BC00DF91CF910895ECEB13
:10096000F0E0808180FDFDCF10928F0388EF8093AF
:10097000000285EA8093BC000895ECEBF0E0208152
:1009800020FDFDCF20918F0320FF0DC0662359F07D
:1009900022E933E0A82FB92FF90181918D938E2F91
:1009A000821B8617D0F380918F03817008951F9268
:1009B0000F920FB60F9211240BB60F922F933F9305
:1009C0004F935F936F937F938F939F93AF93BF9357
:1009D000EF93FF93E091B9008E2F90E0FC013897E0
:1009E000E135F10508F05CC08827EE58FF4F8F4FC6
:1009F0000C94C60710929003E091900380919103AC
:100A0000E81770F481E08E0F80939003F0E0EE56CB
:100A1000FC4F80818093BB0085E88093BC0047C079
:100A200080918F03816080938F0384E98093BC0061
:100A30003EC0E091900381E08E0F809390038091FF
:100A4000BB00F0E0EE56FC4F80832091900330E035
:100A50008091910390E001972817390724F485ECE1
:100A60008093BC0024C085E88093BC0020C086EE43
:100A700092E00E947C098091BB00E0919003F0E03D
:100A8000EE56FC4F808380918F03816080938F03AB
:100A900084E98093BC000BC085EA8093BC0007C04A
:100AA0008091B9008093000284E08093BC00FF91A4
:100AB000EF91BF91AF919F918F917F916F915F91D6
:100AC0004F913F912F910F900BBE0F900FBE0F9043
:100AD0001F9018950E9468045A9A599A8DEE92E0D8
:100AE0000E947C090895CF93DF9300D0CDB7DEB785
:100AF0009EE599831A828B8363E0CE0101960E9462
:100B0000820487EC90E00197F1F700C000000F909D
:100B10000F900F90DF91CF910895E2E0F1E0808196
:100B20008D7F80830895E1E0F1E0808180618083A2
:100B3000A2E0B1E08C9180618C938081826080839F
:100B40008FE39CE90197F1F700C000000E948D053A
:100B500086E40E9473059FEF27EA81E691502040CA
:100B60008040E1F700C000000E94870680E00E94FC
:100B700073058EEF92E00E947C090895E2E0F1E0B7
:100B800080818260808308950E9473050895269A6B
:100B90002E9A08958130910511F42E980895892B8D
:100BA00009F42E9A08950F931F93CF93DF93C82FC4
:100BB0000E94B206D0E067E270E00E94B207C61B56
:100BC000D10960919C0370919D036C0F7D1F709300
:100BD0009D0360939C038E01000F111F072E000CD4
:100BE000880B990B0E94380824E032E041E85BE36F
:100BF0000E949C080E940008060F171F11231CF476
:100C00000E948D0502C00E94BE05C801992324F4EC
:100C100088279927801B910B0E947305D0939F030F
:100C2000C0939E03DF91CF911F910F910895FF9282
:100C30000F931F93CF93DF93C82FF62E0E94B20617
:100C400067E270E00E94B2078B010C2E000CDD0BF6
:100C500080919A0390919B039B01281B390BC9013A
:100C60006FE770E00E94B207C61BD70B8091960316
:100C7000909197038C0F9D1F9093970380939603F9
:100C80001C161D0644F41F141CF40E94BE050AC065
:100C90000E948D0507C01F141CF40E948D0502C020
:100CA0000E948D05CE01880F991F880F991FD5FFCF
:100CB00003C09195819591090E94730510939B0340
:100CC00000939A03D0939903C0939803DF91CF9137
:100CD0001F910F91FF900895CF93C82F8F3740F445
:100CE0000E948D0561E08FE78C1B0E9417060DC0E6
:100CF000853840F00E94BE056FEF8CE78C0F0E9494
:100D0000170603C080E00E947305CF910895E1E0CB
:100D1000F1E080818860808380818062808380812F
:100D200080648083E2E0F1E080818F7B80838FE9C3
:100D30009FE00197F1F700C000008081806480830C
:100D4000E7E0F1E0808110829FEF29EF80E0915091
:100D500020408040E1F700C0000088E193E00E945D
:100D60007C090895E2E0F1E080818F7D80838081BD
:100D7000877F80838AE68A95F1F700C0A6E0B1E01C
:100D80002C918081886080838AE68A95F1F700C083
:100D90008C9190819062908390E030E0322F2227F6
:100DA000821B930B0895ECE7F0E0808180688083DC
:100DB000808180648083AAE7B0E08C9180628C930C
:100DC0008C9180688C938C9184608C938C918260E0
:100DD0008C938C9181608C938C9180648C938081B6
:100DE0008E7F808380818D7F808380818B7F8083D5
:100DF0008081877F808380818F7E80838DE293E0F6
:100E00000E947C090895809178009091790008955E
:100E100080981092A0038EE393E00E947C090895CD
:100E20000E94030708958091A0038F5F8093A00321
:100E300008958091A00308951092A00308950E9440
:100E400003072091A2033091A3032115310599F4E2
:100E5000883770F48091A1038F5F8093A103833062
:100E6000C9F481E090E09093A3038093A2030895D6
:100E70001092A10308952130310561F4893750F0B3
:100E80000E94130781E092E00E9463021092A30384
:100E90001092A2030895E0E9F0E0808188608083E9
:100EA000E1E9F0E080818460808380818D7F8083B0
:100EB0008081816080838BE790E09093990080939C
:100EC0009800E1E7F0E080818260808389E593E02B
:100ED0000E947C09089508980E980C980A983F98EB
:100EE000109A169A149A129A479A8CE693E00E94E6
:100EF0007C09089580B180958170089581E00699FC
:100F000080E0089581E0049980E0089581E00299ED
:100F100080E0089581E0379980E008950E948A0773
:100F200090E00E94CA050E947E07882329F06FEF97
:100F30008EE10E9417060DC00E948607882329F0C3
:100F400061E08EE10E94170604C060E080E00E942C
:100F500017060E947A070E941A020E9482070E94C6
:100F60002B02089597FB072E16F4009407D077FD07
:100F700009D00E94EC0707FC05D03EF490958195BE
:100F80009F4F0895709561957F4F0895EE0FFF1F55
:100F9000881F8BBF0790F691E02D199497FB10F8EE
:100FA000169400080F93083098F00850232F342F20
:100FB000452F562F672F782F892F902DF4CF05942A
:100FC0009795879577956795579547953795279581
:100FD0000A95AAF70F910895AA1BBB1B51E107C000
:100FE000AA1FBB1FA617B70710F0A61BB70B881FB9
:100FF000991F5A95A9F780959095BC01CD01089548
:101000000E9407086894B1110C94960808950E94F4
:101010007B0888F09F5798F0B92F9927B751B0F007
:10102000E1F0660F771F881F991F1AF0BA95C9F76C
:1010300014C0B13091F00E949508B1E008950C946D
:101040009508672F782F8827B85F39F0B93FCCF320
:10105000869577956795B395D9F73EF490958095E9
:10106000709561957F4F8F4F9F4F0895E89409C009
:1010700097FB3EF490958095709561957F4F8F4FCB
:101080009F4F9923A9F0F92F96E9BB279395F695E1
:10109000879577956795B795F111F8CFFAF4BB0F5F
:1010A00011F460FF1BC06F5F7F4F8F4F9F4F16C0C3
:1010B000882311F096E911C0772321F09EE8872F4D
:1010C000762F05C0662371F096E8862F70E060E009
:1010D0002AF09A95660F771F881FDAF7880F969582
:1010E000879597F9089557FD9058440F551F59F06B
:1010F0005F3F71F04795880F97FB991F61F09F3F05
:1011000079F087950895121613061406551FF2CF2D
:101110004695F1DF08C0161617061806991FF1CF7D
:1011200086957105610508940895E894BB276627A4
:101130007727CB0197F908950E94AF080C942009F6
:101140000E94120938F00E94190920F0952311F02D
:101150000C9409090C940F0911240C9496080E9410
:10116000730870F3959FC1F3950F50E0551F629F70
:10117000F001729FBB27F00DB11D639FAA27F00DF0
:10118000B11DAA1F649F6627B00DA11D661F829F17
:101190002227B00DA11D621F739FB00DA11D621FFC
:1011A000839FA00D611D221F749F3327A00D611D19
:1011B000231F849F600D211D822F762F6A2F1124FB
:1011C0009F5750409AF0F1F088234AF0EE0FFF1F2E
:1011D000BB1F661F771F881F91505040A9F79E3F85
:1011E000510580F00C9409090C9496085F3FE4F3D4
:1011F000983ED4F3869577956795B795F795E795DB
:101200009F5FC1F7FE2B880F911D9695879597F9E3
:10121000089597F99F6780E870E060E008959FEF78
:1012200080EC089500240A9416161706180609067D
:10123000089500240A94121613061406050608954C
:10124000092E0394000C11F4882352F0BB0F40F4D4
:10125000BF2B11F460FF04C06F5F7F4F8F4F9F4F14
:1012600008950F931F93CF93DF93009731F4611587
:10127000710519F480E090E03AC08B01EC016EE05A
:1012800070E081E090E00E94AC09FC01892B91F3B1
:1012900080E883830115110571F01387028781E8C7
:1012A00083838091A7039091A803892B21F4F09365
:1012B000A803E093A7032097C9F0D187C087838153
:1012C000826083838091A9039091AA03892B71F492
:1012D000F093AA03E093A9038091AB039091AC0330
:1012E000892B21F4F093AC03E093AB03CF01DF91A2
:1012F000CF911F910F9108950F931F93CF93DF9379
:10130000E091A903F091AA03238121FF1BC08C0166
:10131000D0E0C0E0F80181918F016091A903709144
:10132000AA03DB011896ED91FC911997882331F0FF
:101330001995892B79F3DFEFCFEFECCF8AE0199580
:10134000892B19F08FEF9FEF02C08D2F9C2FDF911B
:10135000CF911F910F9108950F931F93CF93DF9318
:10136000869F8001879F100D969F100D1124C80144
:101370000E94C809EC01009729F0A80160E070E024
:101380000E94F50ACE01DF91CF911F910F91089530
:10139000CF93DF938230910510F482E090E0E091EA
:1013A000AF03F091B00320E030E0C0E0D0E0309730
:1013B00011F14081518148175907C0F0481759076A
:1013C00061F482819381209719F09B838A832BC0DB
:1013D0009093B0038093AF0326C02115310519F017
:1013E0004217530718F49A01BE01DF01EF01028092
:1013F000F381E02DDCCF2115310509F1281B390BD4
:101400002430310590F412968D919C9113976115BB
:10141000710521F0FB019383828304C09093B00394
:101420008093AF03FD01329644C0FD01E20FF31F2C
:1014300081939193225031092D933C933AC020918E
:10144000AD033091AE03232B41F420910D02309176
:101450000E023093AE032093AD0320910B02309126
:101460000C022115310541F42DB73EB740910F0212
:1014700050911002241B350BE091AD03F091AE03A7
:10148000E217F307A0F42E1B3F0B2817390778F05B
:10149000AC014E5F5F4F2417350748F04E0F5F1FBA
:1014A0005093AE034093AD038193919302C0E0E06B
:1014B000F0E0CF01DF91CF9108950F931F93CF9369
:1014C000DF93009709F48CC0FC01329713821282DB
:1014D0000091AF031091B0030115110581F4208133
:1014E0003181820F931F2091AD033091AE032817F5
:1014F000390779F5F093AE03E093AD0371C0D801DD
:1015000040E050E0AE17BF0750F412962D913C9189
:101510001397AD012115310509F1D901F3CF9D01D3
:10152000DA013383228360817181860F971F8217CE
:10153000930769F4EC0128813981260F371F2E5F4C
:101540003F4F318320838A819B8193838283452B04
:1015500029F4F093B003E093AF0342C01396FC93D9
:10156000EE931297ED01499159919E01240F351F79
:10157000E217F30771F480819181840F951F029621
:1015800011969C938E938281938113969C938E9354
:101590001297E0E0F0E0D80112968D919C9113979C
:1015A000009719F0F8018C01F6CF8D919C9198016C
:1015B0002E5F3F4F820F931F2091AD033091AE03FA
:1015C0002817390769F4309729F41092B003109264
:1015D000AF0302C0138212821093AE030093AD03D7
:1015E000DF91CF911F910F910895DC0101C06D93A0
:0C15F00041505040E0F70895F894FFCF00
:1015FC00F8010201000000000000000000B103200F
:10160C000043414E2072657365743A200D005057AB
:10161C004D20696E697469616C697A65640D00436B
:10162C00414E207472616E736D6974696F6E2066C1
:10163C0061696C65642E205472616E736D6974748B
:10164C00696E67206572726F720D0043414E207493
:10165C0072616E736D6974696F6E206661696C6519
:10166C00642E204D657373616765206C6F737420F5
:10167C00696E206172626974726174696F6E0D00BB
:10168C0043414E20696E697469616C697A65640DB9
:10169C00004D435020696E697469616C697A6564A8
:1016AC000D0053504920696E697469616C697A65E3
:1016BC00640D005541525420696E697469616C69FE
:1016CC007A65640D0054574920696E697469616CC0
:1016DC00697A65640D0054455354210D004441430F
:1016EC0020696E697469616C697A65640D004D6F6F
:1016FC00746F722064726976657220696E697469A0
:10170C00616C697A65640D00456E636F6465722067
:10171C00696E697469616C697A65640D0041444352
:10172C0020696E697469616C697A65640D00536334
:10173C006F726520636F756E74657220696E697463
:10174C0069616C697A65640D0054696D6572206914
:10175C006E697469616C697A65640D00416E616CC7
:10176C006F6720636F6E74726F6C6C657220696E3C
:0C177C00697469616C697A65640D000095
:00000001FF
