:100000000C94D5000C94F6000C94F6000C944B0163
:100010000C94F6000C94F6000C94F6000C94F60088
:100020000C94F6000C94F6000C94F6000C94F60078
:100030000C94F6000C94F6000C94F6000C94F60068
:100040000C94F6000C94F6000C94F6000C94F60058
:100050000C94F6000C94F6000C94F6000C94F60048
:100060000C94F6000C94F6000C94F6000C94F60038
:100070000C94F6000C94F6000C94F6000C94F60028
:100080000C94C8010C94F6000C94F6000C94F60045
:100090000C94F6000C94F6000C94F6000C94D90421
:1000A0000C94F6000C94F6000C94F6000C94F600F8
:1000B0000C94F6000C94F6000C94F6000C94F600E8
:1000C0000C94F6000C94F6000C94F6000C94F600D8
:1000D0000C94F6000C94F6000C94F6000C94F600C8
:1000E0000C94F600FC0452055205520552055205C7
:1000F00052055205FC04520552055205520552059F
:1001000052055205FE04520552055205520552058C
:100110005205520552055205520552055205520527
:1001200052055205FE04520552055205520552056C
:100130005205520552055205520552055205520507
:10014000520552054E0552055205520552055205FB
:100150005205520527055205520552055205520512
:1001600052055205520552055205520552055205D7
:10017000520552051B0552055205520552055205FE
:100180005205520539050C9452050C944E050C94F9
:100190001B050C9444040C94FC040C9439050C9439
:1001A0004E040C94FE040C94270511241FBECFEFBF
:1001B000D1E2DEBFCDBF00E00CBF12E0A0E0B2E0B4
:1001C000E2E4F3E100E00BBF02C007900D92AC3116
:1001D000B107D9F722E0ACE1B2E001C01D92A23430
:1001E000B207E1F70E94F8000C949F090C940000FC
:1001F000CF93DF93CDB7DEB72A970FB6F894DEBF63
:100200000FBECDBF249A2C9A0E94BB060E945404B4
:100210000E94120278940E946C050E9491050E942F
:1002200019040E944F030E9435030E94C1050E94D9
:10023000EC060E9443070E9427070F2EFAE0DF2EEC
:10024000F02D8E010F5F1F4FEE24E3946894FF247E
:10025000F1F80E94FF062FEF81EE94E021508040DC
:100260009040E1F700C0000020911C0230911D0277
:10027000215031092230310560F7F8012D2D1192FE
:100280002A95E9F7E982FA820E94F9068B83C80170
:100290000E947902DECF1F920F920FB60F921124A7
:1002A0000BB60F921F932F933F934F935F936F93D0
:1002B0007F938F939F93AF93BF93EF93FF93CF93CE
:1002C000DF93CDB7DEB72A97DEBFCDBF61E0CE01A9
:1002D00001960E94CE028C811E819B819330F9F0A1
:1002E00028F4913041F0923069F036C0943011F129
:1002F000953061F131C00E94FF01113069F50E9413
:10030000FC062AC021E030E030931D0220931C023D
:1003100080931E02812F90E00E94C4051DC084308E
:10032000D9F48D818530C1F487E092E00E941F08E6
:100330002C9812C00E94730681E080931F0282E015
:1003400090E090931D0280931C0206C010921F0241
:1003500010921D0210921C022A960FB6F894DEBF6E
:100360000FBECDBFDF91CF91FF91EF91BF91AF91C4
:100370009F918F917F916F915F914F913F912F91BD
:100380001F910F900BBE0F900FBE0F901F901895EE
:100390001F920F920FB60F9211240BB60F922F934C
:1003A0003F934F935F936F937F938F939F93AF93FD
:1003B000BF93EF93FF9380911C0290911D020197D0
:1003C00029F480911E020E94CD0502C00E9462079E
:1003D0001092950010929400FF91EF91BF91AF9110
:1003E0009F918F917F916F915F914F913F912F914D
:1003F0000F900BBE0F900FBE0F901F90189590E0BE
:100400009C01220F331F880F991F880F991F880F97
:10041000991F820F931F8C5C984F90938900809353
:1004200088000895259AA0E8B0E08C9182608C93B2
:10043000E1E8F0E080818860808380818061808352
:100440008C9180688C938FEF9FE7909389008093C5
:1004500088008081826080838FEF9FE9909387007E
:100460008093860080E8809335020E94FF01089502
:10047000813071F480913502863018F41092350283
:1004800003C0855080933502809135020E94FF01A0
:100490000895813079F4809135028A3F20F08FEF02
:1004A0008093350203C08B5F8093350280913502C3
:1004B0000E94FF01089580E30E9466038695869559
:1004C000869591E08927817090E0089580E30E94ED
:1004D000660384FD08C080E30E94660385FD06C0B4
:1004E00080E090E008958FEF9FEF08958EEF9FEFEB
:1004F0000895EF92FF920F931F93CF93DF937C01A8
:1005000043E063E080E30E94F0030E945B02892BDA
:1005100091F1F701608166956695669581E30E9489
:100520005203F70160816295660F607E82E30E944C
:100530005203F70161816F7085E30E945203F70156
:100540008181882399F087010E5F1F4FC0E0D0E0C2
:10055000F80161918F018C2F8A5C0E9452032196D1
:10056000F701218130E0C217D30794F30E94DA0328
:1005700080E090E006C00E946602009711F00E94A1
:100580006602DF91CF911F910F91FF90EF90089538
:1005900040E061E08CE20E94F0030895AF92BF92C8
:1005A000CF92DF92EF92FF920F931F93CF93DF933F
:1005B000CDB7DEB72A970FB6F894DEBF0FBECDBF1A
:1005C0005C0181E30E946603D82E82E30E946603E9
:1005D000DD0CDD0CDD0C829586958770D82A85E6CA
:1005E0000E9466038F70C82E81F07E0183E0E80EC2
:1005F000F11C06E60C0D16E6812F0E946603F7013A
:1006000081937F011F5F1013F7CF0E94C802D98228
:10061000CA828AE0FE013196D50101900D928A9539
:10062000E1F7C5012A960FB6F894DEBF0FBECDBF25
:10063000DF91CF911F910F91FF90EF90DF90CF90BE
:10064000BF90AF9008954FEF61E08BE20E94F003FE
:10065000EA98E9E6F0E080818062808380818F7E85
:100660008083EA9A5A9A789408954FEF60E680E67C
:100670000E94F00360E08FE00E9452030E94230377
:1006800008950E942E0480EC0E9421040E943104EF
:100690008FE493EC0197F1F700C0000008950E94E9
:1006A00041030895CF93DF93D82FC62F0E942E04C5
:1006B00082E00E9421048D2F0E9421048C2F0E9431
:1006C00021040E943104DF91CF910895CF93C82F68
:1006D0000E942E0483E00E9421048C2F0E9421049A
:1006E0000E942604C82F0E9431048C2FCF910895B8
:1006F000FF920F931F93CF93DF938C01F62E0E94EE
:100700002E0480E90E942104FF2049F0E8010F0D2A
:10071000111D0E9426048993C017D107D1F70E94AA
:100720003104DF91CF911F910F91FF9008958F9227
:100730009F92AF92BF92CF92DF92EF92FF920F9370
:100740001F93CF93DF93822E932EA42EB52EC62E09
:10075000D72EE82EF92E0E942E0480E40E94210458
:10076000C0E0D0E08E011127000F111F000F111FF4
:10077000000F111F282D392D4A2D5B2D6C2D7D2D3D
:100780008E2D9F2D0E94A407822F0E942104219666
:10079000C830D10539F70E943104DF91CF911F9104
:1007A0000F91FF90EF90DF90CF90BF90AF909F9010
:1007B0008F9008950E942E0481E80E9421040E94D7
:1007C00031040895CF930E942E0480EA0E942104F0
:1007D0000E942604C82F0E9431048C2FCF910895C7
:1007E0001F93CF93DF93182FD62FC42F0E942E0470
:1007F00085E00E942104812F0E9421048D2F0E94F8
:1008000021048C2F0E9421040E943104DF91CF919A
:100810001F9108950F931F9310E0000F111F000FF9
:10082000111F000F111F0E94A407822F1F910F910B
:100830000895229A219A279A209A239881E58CBDBF
:1008400008958EBD0DB407FEFDCF089580E00E948F
:1008500021040DB407FEFDCF8EB508952F982F9873
:1008600008952F9A2F9A08950E9419040E942E0429
:1008700080E50E9421040E9431048FE99FE00197E6
:10088000F1F700C00000F2CFE0ECF0E0908195FFBE
:10089000FDCF8093C60080E090E008958091C00075
:1008A0008091C60090E008951092C50087E680937D
:1008B000C400E1ECF0E0808188618083E2ECF0E04C
:1008C00080818E6080836EE474E084E494E00E9412
:1008D000D407909337028093360208958CE080937A
:1008E000B8008FEF8093BB0084E08093BC00089534
:1008F0008091BC0081700895ECEBF0E0808180FD78
:10090000FDCF809100020895CF93DF93EC01ECEBD3
:10091000F0E0908190FDFDCF60932202988190934A
:10092000230290FD13C0623088F0FE013196A4E2EC
:10093000B2E06250262F30E02E5F3F4FCE01820F93
:10094000931F21912D93E817F907D9F710922002F0
:1009500088EF8093000285EA8093BC00DF91CF91FD
:100960000895ECEBF0E0808180FDFDCF1092200235
:1009700088EF8093000285EA8093BC000895ECEB39
:10098000F0E0208120FDFDCF2091200220FF0DC04E
:10099000662359F023E232E0A82FB92FF9018191A3
:1009A0008D938E2F821B8617D0F380912002817049
:1009B00008951F920F920FB60F9211240BB60F924B
:1009C0002F933F934F935F936F937F938F939F9357
:1009D000AF93BF93EF93FF93E091B9008E2F90E018
:1009E000FC013897E135F10508F05CC08827EE5826
:1009F000FF4F8F4F0C949A0710922102E091210231
:100A000080912202E81770F481E08E0F809321021A
:100A1000F0E0ED5DFD4F80818093BB0085E8809321
:100A2000BC0047C08091200281608093200284E94D
:100A30008093BC003EC0E091210281E08E0F809344
:100A400021028091BB00F0E0ED5DFD4F808320919D
:100A5000210230E08091220290E0019728173907A7
:100A600024F485EC8093BC0024C085E88093BC000E
:100A700020C084E192E00E941F088091BB00E091B9
:100A80002102F0E0ED5DFD4F8083809120028160C6
:100A90008093200284E98093BC000BC085EA809398
:100AA000BC0007C08091B9008093000284E080936D
:100AB000BC00FF91EF91BF91AF919F918F917F917A
:100AC0006F915F914F913F912F910F900BBE0F90BF
:100AD0000FBE0F901F9018950E946E045A9A599A53
:100AE0000895CF93DF9300D0CDB7DEB79EE599830D
:100AF0001A828B8363E0CE0101960E94840487EC06
:100B000090E00197F1F700C000000F900F900F9058
:100B1000DF91CF910895E2E0F1E080818D7F8083C5
:100B20000895E1E0F1E0808180618083A2E0B1E09E
:100B30008C9180618C938081826080838FE39CE9BB
:100B40000197F1F700C000000E948B0586E40E9427
:100B500071059FEF27EA81E6915020408040E1F740
:100B600000C000000E94730680E00E947105089595
:100B7000E2E0F1E080818260808308950E94710547
:100B80000895269A2E9A08958130910511F42E9891
:100B90000895892B09F42E9A08950F931F93CF93EC
:100BA000DF93C82F0E949A06D0E067E270E00E94AF
:100BB0008607C61BD10980912D0290912E028C0FC1
:100BC0009D1F90932E0280932D028E01000F111F06
:100BD0000C0F1D1F11231CF40E948B0502C00E94E4
:100BE000B805C801992324F488279927801B910B05
:100BF0000E947105D0933002C0932F02DF91CF91F4
:100C00001F910F910895FF920F931F93CF93DF933E
:100C1000C82FF62E0E949A0667E270E00E948607AF
:100C20008B010C2E000CDD0B80912B0290912C027D
:100C30009B01281B390BC9016FE770E00E948607F2
:100C4000C61BD70B80912702909128028C0F9D1F05
:100C500090932802809327021C161D0644F41F144B
:100C60001CF40E94B8050AC00E948B0507C01F141F
:100C70001CF40E948B0502C00E948B05CE01880FD8
:100C8000991F880F991FD5FF03C0919581959109F0
:100C90000E94710510932C0200932B02D0932A021C
:100CA000C0932902DF91CF911F910F91FF9008957A
:100CB000CF93C82F8F3740F40E948B0561E08FE7F8
:100CC0008C1B0E9403060DC0853840F00E94B805B9
:100CD0006FEF8CE78C0F0E94030603C080E00E9438
:100CE0007105CF910895E1E0F1E080818860808313
:100CF000808180628083808180648083E2E0F1E093
:100D000080818F7B80838FE99FE00197F1F700C09E
:100D10000000808180648083E7E0F1E080811082C0
:100D20009FEF29EF80E0915020408040E1F700C024
:100D300000000895E2E0F1E080818F7D8083808172
:100D4000877F80838AE68A95F1F700C0A6E0B1E04C
:100D50002C918081886080838AE68A95F1F700C0B3
:100D60008C9190819062908390E030E0322F222726
:100D7000821B930B0895ECE7F0E08081806880830C
:100D8000808180648083AAE7B0E08C9180628C933C
:100D90008C9180688C938C9184608C938C91826010
:100DA0008C938C9181608C938C9180648C938081E6
:100DB0008E7F808380818D7F808380818B7F808305
:100DC0008081877F808380818F7E8083089580915A
:100DD00078009091790008958098109231020895DA
:100DE0000E94E7060895809131028F5F809331025F
:100DF00008958091310208951092310208950E9461
:100E0000E70620913302309134022115310599F41F
:100E1000883770F4809132028F5F80933202833082
:100E2000A9F481E090E09093340280933302089516
:100E30001092320208952130310541F4893730F0A3
:100E40000E94F30610923402109233020895E0E9F2
:100E5000F0E0808188608083E1E9F0E08081846057
:100E6000808380818D7F80838081816080838BE718
:100E700090E09093990080939800E1E7F0E0808102
:100E800082608083089508980E980C980A983F987D
:100E9000109A169A149A129A479A089580B18095DA
:100EA0008170089581E0069980E0089581E00499B9
:100EB00080E0089581E0029980E0089581E037990B
:100EC00080E008950E945E0790E00E94C4050E94A1
:100ED0005207882329F06FEF8EE10E9403060DC0B0
:100EE0000E945A07882329F061E08EE10E940306E0
:100EF00004C060E080E00E9403060E944E070E944A
:100F000038020E9456070E944902089597FB072E57
:100F100016F4009407D077FD09D00E94C00707FCA3
:100F200005D03EF4909581959F4F089570956195F9
:100F30007F4F0895EE0FFF1F881F8BBF0790F6911C
:100F4000E02D199497FB10F8169400080F930830C1
:100F500098F00850232F342F452F562F672F782FC6
:100F6000892F902DF4CF0594979587957795679560
:100F700057954795379527950A95AAF70F910895A4
:100F8000AA1BBB1B51E107C0AA1FBB1FA617B707AF
:100F900010F0A61BB70B881F991F5A95A9F78095CB
:100FA0009095BC01CD0108950F931F93CF93DF93CC
:100FB000009731F46115710519F480E090E03AC0B2
:100FC0008B01EC016EE070E081E090E00E944F0840
:100FD000FC01892B91F380E883830115110571F0E1
:100FE0001387028781E883838091380290913902C8
:100FF000892B21F4F0933902E09338022097C9F04D
:10100000D187C08783818260838380913A029091E7
:101010003B02892B71F4F0933B02E0933A028091FA
:101020003C0290913D02892B21F4F0933D02E09324
:101030003C02CF01DF91CF911F910F9108950F9343
:101040001F93CF93DF93E0913A02F0913B0223810B
:1010500021FF1BC08C01D0E0C0E0F80181918F011D
:1010600060913A0270913B02DB011896ED91FC9180
:101070001997882331F01995892B79F3DFEFCFEF9A
:10108000ECCF8AE01995892B19F08FEF9FEF02C002
:101090008D2F9C2FDF91CF911F910F9108950F936A
:1010A0001F93CF93DF93869F8001879F100D969F9C
:1010B000100D1124C8010E946B08EC01009729F063
:1010C000A80160E070E00E949809CE01DF91CF9105
:1010D0001F910F910895CF93DF938230910510F403
:1010E00082E090E0E0914002F091410220E030E0A7
:1010F000C0E0D0E0309711F1408151814817590785
:10110000C0F04817590761F482819381209719F044
:101110009B838A832BC0909341028093400226C018
:101120002115310519F04217530718F49A01BE0131
:10113000DF01EF010280F381E02DDCCF21153105C5
:1011400009F1281B390B2430310590F412968D914A
:101150009C9113976115710521F0FB0193838283A4
:1011600004C09093410280934002FD01329644C036
:10117000FD01E20FF31F81939193225031092D93CA
:101180003C933AC020913E0230913F02232B41F420
:10119000209103023091040230933F0220933E02DB
:1011A00020910102309102022115310541F42DB741
:1011B0003EB74091050250910602241B350BE09189
:1011C0003E02F0913F02E217F307A0F42E1B3F0B03
:1011D0002817390778F0AC014E5F5F4F24173507A9
:1011E00048F04E0F5F1F50933F0240933E028193A1
:1011F000919302C0E0E0F0E0CF01DF91CF9108953C
:101200000F931F93CF93DF93009709F48CC0FC01D9
:10121000329713821282009140021091410201150F
:10122000110581F420813181820F931F20913E02AC
:1012300030913F022817390779F5F0933F02E09388
:101240003E0271C0D80140E050E0AE17BF0750F435
:1012500012962D913C911397AD012115310509F19D
:10126000D901F3CF9D01DA0133832283608171813B
:10127000860F971F8217930769F4EC012881398143
:10128000260F371F2E5F3F4F318320838A819B813A
:1012900093838283452B29F4F0934102E09340022B
:1012A00042C01396FC93EE931297ED014991599128
:1012B0009E01240F351FE217F30771F4808191819D
:1012C000840F951F029611969C938E938281938131
:1012D00013969C938E931297E0E0F0E0D80112965B
:1012E0008D919C911397009719F0F8018C01F6CF1E
:1012F0008D919C9198012E5F3F4F820F931F2091FB
:101300003E0230913F022817390769F4309729F4DB
:10131000109241021092400202C013821282109376
:101320003F0200933E02DF91CF911F910F910895EC
:10133000DC0101C06D9341505040E0F70895F894EE
:02134000FFCFDD
:10134200F800004202200043414E2072657365742A
:0C1352003A200D0054455354210D0000BA
:00000001FF
