:100000000C94D5000C94F6000C94F6000C944B0163
:100010000C94F6000C94F6000C94F6000C94F60088
:100020000C94F6000C94F6000C94F6000C94F60078
:100030000C94F6000C94F6000C94F6000C94F60068
:100040000C94F6000C94F6000C94F6000C94F60058
:100050000C94F6000C94F6000C94F6000C94F60048
:100060000C94F6000C94F6000C94F6000C94F60038
:100070000C94F6000C94F6000C94F6000C94F60028
:100080000C94C1010C94F6000C94F6000C94F6004C
:100090000C94F6000C94F6000C94F6000C94F20408
:1000A0000C94F6000C94F6000C94F6000C94F600F8
:1000B0000C94F6000C94F6000C94F6000C94F600E8
:1000C0000C94F6000C94F6000C94F6000C94F600D8
:1000D0000C94F6000C94F6000C94F6000C94F600C8
:1000E0000C94F60015056B056B056B056B056B0530
:1000F0006B056B0515056B056B056B056B056B05D6
:100100006B056B0517056B056B056B056B056B05C3
:100110006B056B056B056B056B056B056B056B055F
:100120006B056B0517056B056B056B056B056B05A3
:100130006B056B056B056B056B056B056B056B053F
:100140006B056B0567056B056B056B056B056B0533
:100150006B056B0540056B056B056B056B056B054A
:100160006B056B056B056B056B056B056B056B050F
:100170006B056B0534056B056B056B056B056B0536
:100180006B056B0552050C9467050C9417050C94D0
:1001900034050C946B050C9455040C9415050C94C3
:1001A00040050C9452050C945F0411241FBECFEF40
:1001B000D1E2DEBFCDBF00E00CBF13E0A0E0B2E0B3
:1001C000ECEAF3E100E00BBF02C007900D92A23809
:1001D000B107D9F723E0A2E8B3E001C01D92A83A25
:1001E000B207E1F70E94F8000C94D4090C940000C7
:1001F000CF93DF93CDB7DEB72A970FB6F894DEBF63
:100200000FBECDBF249A2C9A0E94E0060E9465047E
:100210000E940B0278940E9485050E94AE050E9400
:1002200026040E945C030E943A030E94E2050E9499
:1002300015070E9474070E9454070F2EFAE0DF2E64
:10024000F02D8E010F5F1F4FEE24E3946894FF247E
:10025000F1F80E942C072FEF81EE94E021508040AE
:100260009040E1F700C000002091820330918303A9
:10027000215031092230310560F7F8012D2D1192FE
:100280002A95E9F7E982FA820E9426078B83C80142
:100290000E947E02DECF1F920F920FB60F921124A2
:1002A0000BB60F922F933F934F935F936F937F9370
:1002B0008F939F93AF93BF93EF93FF93CF93DF936E
:1002C000CDB7DEB72A97DEBFCDBF61E0CE01019684
:1002D0000E94D3028C819B819330D9F028F4913015
:1002E00041F0923049F032C09430F1F0953041F154
:1002F0002DC00E94F8012AC021E030E03093830332
:1003000020938203809384038E8190E00E94E50510
:100310001DC08430D9F48D818530C1F487E092E02E
:100320000E9454082C9812C00E94940681E0809389
:10033000850382E090E0909383038093820306C05C
:100340001092850310928303109282032A960FB6AF
:10035000F894DEBF0FBECDBFDF91CF91FF91EF913B
:10036000BF91AF919F918F917F916F915F914F91CD
:100370003F912F910F900BBE0F900FBE0F901F90CB
:1003800018951F920F920FB60F9211240BB60F9271
:100390002F933F934F935F936F937F938F939F938D
:1003A000AF93BF93EF93FF93809182039091830368
:1003B000019729F4809184030E94EE0502C00E94F7
:1003C00097071092950010929400FF91EF91BF91C2
:1003D000AF919F918F917F916F915F914F913F91DD
:1003E0002F910F900BBE0F900FBE0F901F9018957E
:1003F00090E09C01220F331F880F991F880F991FCF
:10040000880F991F820F931F8C5C984F90938900DF
:10041000809388000895259AA0E8B0E08C918260CE
:100420008C93E1E8F0E08081886080838081806146
:1004300080838C9180688C938FEF9FE790938900E5
:10044000809388008081826080838FEF9FE9909302
:1004500087008093860080E880939B030E94F801C8
:1004600084E192E00E9454080895813071F48091F3
:100470009B03863018F410929B0303C08550809331
:100480009B0380919B030E94F8010895813079F4C9
:1004900080919B038A3F20F08FEF80939B0303C0E2
:1004A0008B5F80939B0380919B030E94F8010895CA
:1004B00080E30E94730386958695869591E089274F
:1004C000817090E0089580E30E94730384FF07C069
:1004D00085E292E00E9454088FEF9FEF089580E339
:1004E0000E94730385FF07C081E592E00E945408D3
:1004F0008EEF9FEF089580E090E00895EF92FF92D5
:100500000F931F93CF93DF937C0143E063E080E37D
:100510000E94FD030E945802892B91F1F70160812E
:1005200066956695669581E30E945F03F701608199
:100530006295660F607E82E30E945F03F70161812E
:100540006F7085E30E945F03F7018181882399F032
:1005500087010E5F1F4FC0E0D0E0F80161918F016D
:100560008C2F8A5C0E945F032196F701218130E085
:10057000C217D30794F30E94E70380E090E006C01F
:100580000E946302009711F00E946302DF91CF91F5
:100590001F910F91FF90EF90089540E061E08CE291
:1005A0000E94FD030895AF92BF92CF92DF92EF9227
:1005B000FF920F931F93CF93DF93CDB7DEB72A97A8
:1005C0000FB6F894DEBF0FBECDBF5C0181E30E9481
:1005D0007303D82E82E30E947303DD0CDD0CDD0C67
:1005E000829586958770D82A85E60E9473038F705E
:1005F000C82E81F07E0183E0E80EF11C06E60C0DAA
:1006000016E6812F0E947303F70181937F011F5F1C
:100610001013F7CF0E94CD02D982CA828AE0FE0170
:100620003196D50101900D928A95E1F7C5012A9680
:100630000FB6F894DEBF0FBECDBFDF91CF911F91F3
:100640000F91FF90EF90DF90CF90BF90AF90089503
:100650004FEF61E08BE20E94FD03EA98E9E6F0E0EB
:1006600080818062808380818F7E8083EA9A5A9A1B
:10067000789408954FEF60E680E60E94FD0360E005
:100680008FE00E945F030E94280386E892E00E94A8
:10069000540808950E943F0480EC0E9432040E9496
:1006A00042048FE493EC0197F1F700C0000087E962
:1006B00092E00E94540808950E944A030895CF933F
:1006C000DF93D82FC62F0E943F0482E00E9432049D
:1006D0008D2F0E9432048C2F0E9432040E9442040B
:1006E000DF91CF910895CF93C82F0E943F0483E0FC
:1006F0000E9432048C2F0E9432040E943704C82FBB
:100700000E9442048C2FCF910895FF920F931F9364
:10071000CF93DF938C01F62E0E943F0480E90E9464
:100720003204FF2049F0E8010F0D111D0E9437042B
:100730008993C017D107D1F70E944204DF91CF916E
:100740001F910F91FF9008958F929F92AF92BF9249
:10075000CF92DF92EF92FF920F931F93CF93DF938D
:10076000822E932EA42EB52EC62ED72EE82EF92E2D
:100770000E943F0480E40E943204C0E0D0E08E0179
:100780001127000F111F000F111F000F111F282D1F
:10079000392D4A2D5B2D6C2D7D2D8E2D9F2D0E9488
:1007A000D907822F0E9432042196C830D10539F72B
:1007B0000E944204DF91CF911F910F91FF90EF9023
:1007C000DF90CF90BF90AF909F908F9008950E9440
:1007D0003F0481E80E9432040E9442040895CF93AE
:1007E0000E943F0480EA0E9432040E943704C82F0E
:1007F0000E9442048C2FCF9108951F93CF93DF93D3
:10080000182FD62FC42F0E943F0485E00E94320487
:10081000812F0E9432048D2F0E9432048C2F0E945F
:1008200032040E944204DF91CF911F9108950F93EB
:100830001F9310E0000F111F000F111F000F111F59
:100840000E94D907822F1F910F910895229A219A11
:10085000279A209A239881E58CBD88EA92E00E942D
:10086000540808958EBD0DB407FEFDCF089580E0B5
:100870000E9432040DB407FEFDCF8EB508952F9867
:100880002F9808952F9A2F9A08950E9426040E9467
:100890003F0480E50E9432040E9442048FE99FE0F9
:1008A0000197F1F700C00000F2CFE0ECF0E090819A
:1008B00095FFFDCF8093C60080E090E00895809181
:1008C000C0008091C60090E008951092C50087E6B0
:1008D0008093C400E1ECF0E0808188618083E2ECE9
:1008E000F0E080818E6080836FE574E085E594E0C0
:1008F0000E94090890939D0380939C0389EB92E0EA
:100900000E94540808958CE08093B8008FEF809384
:10091000BB0084E08093BC008BEC92E00E94540802
:1009200008958091BC0081700895ECEBF0E0808127
:1009300080FDFDCF809100020895CF93DF93EC01FD
:10094000ECEBF0E0908190FDFDCF609388039881FF
:100950009093890390FD13C0623088F0FE013196B8
:10096000AAE8B3E06250262F30E02E5F3F4FCE0161
:10097000820F931F21912D93E817F907D9F7109251
:10098000860388EF8093000285EA8093BC00DF91A4
:10099000CF910895ECEBF0E0808180FDFDCF1092C7
:1009A000860388EF8093000285EA8093BC00089557
:1009B000ECEBF0E0208120FDFDCF2091860320FFAD
:1009C0000DC0662359F029E833E0A82FB92FF901AB
:1009D00081918D938E2F821B8617D0F38091860391
:1009E000817008951F920F920FB60F9211240BB6CB
:1009F0000F922F933F934F935F936F937F938F93B8
:100A00009F93AF93BF93EF93FF93E091B9008E2F25
:100A100090E0FC013897E135F10508F05CC08827CB
:100A2000EE58FF4F8F4F0C94CF0710928703E09141
:100A3000870380918803E81770F481E08E0F80931C
:100A40008703F0E0E757FC4F80818093BB0085E887
:100A50008093BC0047C080918603816080938603A9
:100A600084E98093BC003EC0E091870381E08E0F53
:100A7000809387038091BB00F0E0E757FC4F8083B1
:100A80002091870330E08091880390E00197281738
:100A9000390724F485EC8093BC0024C085E880935A
:100AA000BC0020C08CED92E00E9454088091BB00F5
:100AB000E0918703F0E0E757FC4F80838091860345
:100AC00081608093860384E98093BC000BC085EA33
:100AD0008093BC0007C08091B9008093000284E03D
:100AE0008093BC00FF91EF91BF91AF919F918F9147
:100AF0007F916F915F914F913F912F910F900BBE1E
:100B00000F900FBE0F901F9018950E9483045A9A61
:100B1000599A83EE92E00E9454080895CF93DF9390
:100B200000D0CDB7DEB79EE599831A828B8363E050
:100B3000CE0101960E949D0487EC90E00197F1F7A9
:100B400000C000000F900F900F90DF91CF9108959B
:100B5000E2E0F1E080818D7F80830895E1E0F1E0C3
:100B6000808180618083A2E0B1E08C9180618C9370
:100B70008081826080838FE39CE90197F1F700C058
:100B800000000E94A80586E40E948E059FEF27EAD8
:100B900081E6915020408040E1F700C000000E94B3
:100BA000940680E00E948E0584EF92E00E94540833
:100BB0000895E2E0F1E080818260808308950E94E0
:100BC0008E050895269A2E9A08958130910511F484
:100BD0002E980895892B09F42E9A08950F931F9348
:100BE000CF93DF93C82F0E94BF06D0E067E270E08A
:100BF0000E94BB07C61BD109809193039091940377
:100C00008C0F9D1F90939403809393038E01000F8C
:100C1000111F0C0F1D1F11231CF40E94A80502C0F8
:100C20000E94D905C801992324F488279927801B9D
:100C3000910B0E948E05D0939603C0939503DF918C
:100C4000CF911F910F910895FF920F931F93CF9310
:100C5000DF93C82FF62E0E94BF0667E270E00E9465
:100C6000BB078B010C2E000CDD0B80919103909142
:100C700092039B01281B390BC9016FE770E00E94AA
:100C8000BB07C61BD70B80918D0390918E038C0FF1
:100C90009D1F90938E0380938D031C161D0644F4B4
:100CA0001F141CF40E94D9050AC00E94A80507C0A1
:100CB0001F141CF40E94A80502C00E94A805CE01C2
:100CC000880F991F880F991FD5FF03C091958195B3
:100CD00091090E948E051093920300939103D09383
:100CE0009003C0938F03DF91CF911F910F91FF90DD
:100CF0000895CF93C82F8F3740F40E94A80561E074
:100D00008FE78C1B0E9424060DC0853840F00E949E
:100D1000D9056FEF8CE78C0F0E94240603C080E09A
:100D20000E948E05CF910895E1E0F1E08081886016
:100D30008083808180628083808180648083E2E020
:100D4000F1E080818F7B80838FE99FE00197F1F74D
:100D500000C00000808180648083E7E0F1E0808152
:100D600010829FEF29EF80E0915020408040E1F712
:100D700000C000008EE093E00E9454080895E2E075
:100D8000F1E080818F7D80838081877F80838AE608
:100D90008A95F1F700C0A6E0B1E02C9180818860CF
:100DA00080838AE68A95F1F700C08C9190819062E9
:100DB000908390E030E0322F2227821B930B08951E
:100DC000ECE7F0E0808180688083808180648083AC
:100DD000AAE7B0E08C9180628C938C9180688C93B0
:100DE0008C9184608C938C9182608C938C918160C7
:100DF0008C938C9180648C9380818E7F80838081A2
:100E00008D7F808380818B7F80838081877F8083BB
:100E100080818F7E808383E293E00E94540808954E
:100E200080917800909179000895809810929703AE
:100E300084E393E00E94540808950E9410070895E7
:100E4000809197038F5F8093970308958091970314
:100E500008951092970308950E9410072091990316
:100E600030919A032115310599F4883770F48091F7
:100E700098038F5F809398038330A9F481E090E01A
:100E800090939A038093990308951092980308957C
:100E90002130310541F4893730F00E94200710924B
:100EA0009A03109299030895E0E9F0E08081886048
:100EB0008083E1E9F0E080818460808380818D7FA0
:100EC00080838081816080838BE790E0909399009C
:100ED00080939800E1E7F0E08081826080838FE476
:100EE00093E00E945408089508980E980C980A9868
:100EF0003F98109A169A149A129A479A82E693E0AB
:100F00000E945408089580B180958170089581E011
:100F1000069980E0089581E0049980E0089581E0D9
:100F2000029980E0089581E0379980E008950E9459
:100F3000930790E00E94E5050E948707882329F027
:100F40006FEF8EE10E9424060DC00E948F07882358
:100F500029F061E08EE10E94240604C060E080E098
:100F60000E9424060E9483070E9435020E948B077C
:100F70000E944602089597FB072E16F4009407D0AE
:100F800077FD09D00E94F50707FC05D03EF4909547
:100F900081959F4F0895709561957F4F0895EE0F4D
:100FA000FF1F881F8BBF0790F691E02D199497FBC8
:100FB00010F8169400080F93083098F00850232F6B
:100FC000342F452F562F672F782F892F902DF4CF50
:100FD0000594979587957795679557954795379594
:100FE00027950A95AAF70F910895AA1BBB1B51E1FB
:100FF00007C0AA1FBB1FA617B70710F0A61BB70B89
:10100000881F991F5A95A9F780959095BC01CD012D
:1010100008950F931F93CF93DF93009731F46115D9
:10102000710519F480E090E03AC08B01EC016EE0AC
:1010300070E081E090E00E948408FC01892B91F32C
:1010400080E883830115110571F01387028781E819
:10105000838380919E0390919F03892B21F4F093C9
:101060009F03E0939E032097C9F0D187C0878381B7
:10107000826083838091A0039091A103892B71F4F6
:10108000F093A103E093A0038091A2039091A303A6
:10109000892B21F4F093A303E093A203CF01DF9106
:1010A000CF911F910F9108950F931F93CF93DF93CB
:1010B000E091A003F091A103238121FF1BC08C01CB
:1010C000D0E0C0E0F80181918F016091A0037091A0
:1010D000A103DB011896ED91FC911997882331F05B
:1010E0001995892B79F3DFEFCFEFECCF8AE01995D3
:1010F000892B19F08FEF9FEF02C08D2F9C2FDF916E
:10110000CF911F910F9108950F931F93CF93DF936A
:10111000869F8001879F100D969F100D1124C80196
:101120000E94A008EC01009729F0A80160E070E09F
:101130000E94CD09CE01DF91CF911F910F910895AB
:10114000CF93DF938230910510F482E090E0E0913C
:10115000A603F091A70320E030E0C0E0D0E0309794
:1011600011F14081518148175907C0F048175907BC
:1011700061F482819381209719F09B838A832BC02D
:101180009093A7038093A60326C02115310519F07B
:101190004217530718F49A01BE01DF01EF010280E4
:1011A000F381E02DDCCF2115310509F1281B390B26
:1011B0002430310590F412968D919C91139761150E
:1011C000710521F0FB019383828304C09093A703F0
:1011D0008093A603FD01329644C0FD01E20FF31F88
:1011E00081939193225031092D933C933AC02091E1
:1011F000A4033091A503232B41F4209103023091E5
:1012000004023093A5032093A4032091010230919E
:1012100002022115310541F42DB73EB74091050278
:1012200050910602241B350BE091A403F091A50315
:10123000E217F307A0F42E1B3F0B2817390778F0AD
:10124000AC014E5F5F4F2417350748F04E0F5F1F0C
:101250005093A5034093A4038193919302C0E0E0CF
:10126000F0E0CF01DF91CF9108950F931F93CF93BB
:10127000DF93009709F48CC0FC013297138212822D
:101280000091A6031091A7030115110581F4208197
:101290003181820F931F2091A4033091A503281759
:1012A000390779F5F093A503E093A40371C0D80141
:1012B00040E050E0AE17BF0750F412962D913C91DC
:1012C0001397AD012115310509F1D901F3CF9D0126
:1012D000DA013383228360817181860F971F821721
:1012E000930769F4EC0128813981260F371F2E5F9F
:1012F0003F4F318320838A819B8193838283452B57
:1013000029F4F093A703E093A60342C01396FC933D
:10131000EE931297ED01499159919E01240F351FCB
:10132000E217F30771F480819181840F951F029673
:1013300011969C938E938281938113969C938E93A6
:101340001297E0E0F0E0D80112968D919C911397EE
:10135000009719F0F8018C01F6CF8D919C919801BE
:101360002E5F3F4F820F931F2091A4033091A5035E
:101370002817390769F4309729F41092A7031092BF
:10138000A60302C0138212821093A5030093A40344
:10139000DF91CF911F910F910895DC0101C06D93F2
:0C13A00041505040E0F70895F894FFCF52
:1013AC00F80000A803200043414E20726573657459
:1013BC003A200D0050574D20696E697469616C6953
:1013CC007A65640D0043414E207472616E736D69D1
:1013DC0074696F6E206661696C65642E205472614D
:1013EC006E736D697474696E67206572726F720DBD
:1013FC000043414E207472616E736D6974696F6E37
:10140C00206661696C65642E204D65737361676538
:10141C00206C6F737420696E2061726269747261E2
:10142C0074696F6E0D0043414E20696E6974696179
:10143C006C697A65640D004D435020696E6974695E
:10144C00616C697A65640D0053504920696E69744A
:10145C0069616C697A65640D005541525420696E5E
:10146C00697469616C697A65640D00545749206927
:10147C006E697469616C697A65640D0054455354E6
:10148C00210D0044414320696E697469616C697A6D
:10149C0065640D004D6F746F7220647269766572AD
:1014AC0020696E697469616C697A65640D00456EBA
:1014BC00636F64657220696E697469616C697A65C1
:1014CC00640D0041444320696E697469616C697AEA
:1014DC0065640D0053636F726520636F756E746580
:1014EC007220696E697469616C697A65640D005467
:1014FC00696D657220696E697469616C697A65647D
:10150C000D00416E616C6F6720636F6E74726F6C4F
:10151C006C657220696E697469616C697A65640DB9
:02152C000000BD
:00000001FF
