:100000000C94F3000C9414010C9414010C944A0108
:100010000C9414010C9414010C9414010C9414010C
:100020000C9414010C9414010C9414010C941401FC
:100030000C9414010C9414010C9414010C941401EC
:100040000C9414010C9414010C9414010C941401DC
:100050000C9414010C9414010C9414010C941401CC
:100060000C9414010C9442020C9414010C9414018D
:100070000C9414010C9414010C9414010C941401AC
:100080000C94C3010C9414010C9414010C941401ED
:100090000C9414010C9414010C9414010C94540548
:1000A0000C9414010C9414010C9414010C9414017C
:1000B0000C9414010C9414010C9414010C9414016C
:1000C0000C9414010C9414010C9414010C9414015C
:1000D0000C9414010C9414010C9414010C9414014C
:1000E0000C941401FE01030208020D021202160212
:1000F0001A021E02220227027705CD05CD05CD0585
:10010000CD05CD05CD05CD057705CD05CD05CD05B5
:10011000CD05CD05CD05CD057905CD05CD05CD05A3
:10012000CD05CD05CD05CD05CD05CD05CD05CD053F
:10013000CD05CD05CD05CD057905CD05CD05CD0583
:10014000CD05CD05CD05CD05CD05CD05CD05CD051F
:10015000CD05CD05CD05CD05C905CD05CD05CD0513
:10016000CD05CD05CD05CD05A205CD05CD05CD052A
:10017000CD05CD05CD05CD05CD05CD05CD05CD05EF
:10018000CD05CD05CD05CD059605CD05CD05CD0516
:10019000CD05CD05CD05CD05B4050C94FE010C941F
:1001A000C9050C9427020C9477050C940D020C944D
:1001B0001E020C9403020C9416020C9496050C94E7
:1001C00008020C9412020C9479050C94CD050C9441
:1001D000A2050C941A020C94B4040C9422020C9400
:1001E000BE040C94B40511241FBECFEFD1E2DEBFD4
:1001F000CDBF00E00CBF13E0A0E0B2E0E6EFF6E117
:1002000000E00BBF02C007900D92AC38B107D9F7E0
:1002100023E0ACE8B3E001C01D92A23BB207E1F7D6
:100220000E9416010C94790B0C940000249A2C9ACD
:100230000E9450070E94C4040E946A0278940E949F
:10024000E7050E9410060E9485040E94BB030E94DD
:1002500099030E9444060E9485070E94E8070E94B5
:10026000C8072FEF81EE94E0215080409040E1F7E5
:1002700000C0000080918C0390918D03892B19F0B0
:100280000E949C07EECF80E80E94520280E00E940C
:100290004106E7CF1F920F920FB60F9211240BB6B3
:1002A0000F922F933F934F935F936F937F938F930F
:1002B0009F93AF93BF93EF93FF93CF93DF93CDB70C
:1002C000DEB72A97DEBFCDBF61E0CE0101960E9466
:1002D00032038C819B819330E1F028F4913049F016
:1002E000923051F035C0953041F1F0F0963051F137
:1002F0002FC00E9452022CC021E030E030938D03C9
:1003000020938C0380938E038E8190E00E94470699
:100310001FC08430E9F48D818530D1F481E192E011
:100320000E94F9092C9814C00E94040782E090E012
:1003300090938D0380938C030BC010928D031092C9
:100340008C0306C083E090E090938D0380938C0330
:100350002A960FB6F894DEBF0FBECDBFDF91CF91C6
:10036000FF91EF91BF91AF919F918F917F916F918D
:100370005F914F913F912F910F900BBE0F900FBE49
:100380000F901F9018951F920F920FB60F92112485
:100390000BB60F922F933F934F935F936F937F937F
:1003A0008F939F93AF93BF93EF93FF9380918C03B1
:1003B00090918D038130910529F480918E030E94E4
:1003C000500649C08230910519F40E940B0843C0C1
:1003D000039709F040C0E091A4038E2FEE0F990B14
:1003E000AA0BBB0BFC01E156F109EA30F10598F5C7
:1003F0008827EE58FF4F8F4F0C9443086FEF8EE124
:100400000E94940628C060E080E00E94940623C009
:1004100061E08EE10E9494061EC060E080E00E94D0
:10042000940619C081E00E94940215C080E00E94E9
:10043000940211C081E00E94A5020DC080E00E94DC
:10044000A50209C081E090E00E94470604C080E058
:1004500090E00E9447061092950010929400FF9140
:10046000EF91BF91AF919F918F917F916F915F912C
:100470004F913F912F910F900BBE0F900FBE0F9099
:100480001F9018951F920F920FB60F9211248F9301
:100490008091C6008093A4038F910F900FBE0F90A0
:1004A0001F9018952FEF30E0A901481B5109CA0190
:1004B0009A01220F331F880F991F880F991F880FE9
:1004C000991F820F931F8C5C984F909389008093A3
:1004D00088000895259AA0E8B0E08C9182608C9302
:1004E000E1E8F0E0808188608083808180618083A2
:1004F0008C9180688C938FEF9FE790938900809315
:1005000088008081826080838FEF9FE990938700CD
:100510008093860080E88093A5030E9452028EE1BA
:1005200092E00E94F9090895813071F48091A50349
:10053000863018F41092A50303C085508093A5035C
:100540008091A5030E9452020895813079F4809130
:10055000A5038A3F20F08FEF8093A50303C08B5F34
:100560008093A5038091A5030E945202089580E321
:100570000E94D20386958695869591E089278170A1
:1005800090E0089580E30E94D20384FF07C08FE2C9
:1005900092E00E94F9098FEF9FEF089580E30E9497
:1005A000D20385FF07C08BE592E00E94F9098EEF28
:1005B0009FEF089580E090E00895EF92FF920F93EF
:1005C0001F93CF93DF937C0143E063E080E30E94BD
:1005D0005C040E94B702892B91F1F7016081669556
:1005E0006695669581E30E94BE03F701608162957E
:1005F000660F607E82E30E94BE03F70161816F7027
:1006000085E30E94BE03F7018181882399F0870169
:100610000E5F1F4FC0E0D0E0F80161918F018C2F79
:100620008A5C0E94BE032196F701218130E0C21747
:10063000D30794F30E94460480E090E006C00E9435
:10064000C202009711F00E94C202DF91CF911F9168
:100650000F91FF90EF90089540E061E08CE20E94DE
:100660005C040895AF92BF92CF92DF92EF92FF9217
:100670000F931F93CF93DF93CDB7DEB72A970FB6B3
:10068000F894DEBF0FBECDBF5C0181E30E94D203B0
:10069000D82E82E30E94D203DD0CDD0CDD0C8295A6
:1006A00086958770D82A85E60E94D2038F70C82E5F
:1006B00081F07E0183E0E80EF11C06E60C0D16E6E3
:1006C000812F0E94D203F70181937F011F5F1013D6
:1006D000F7CF0E942C03D982CA828AE0FE013196AC
:1006E000D50101900D928A95E1F7C5012A960FB6C2
:1006F000F894DEBF0FBECDBFDF91CF911F910F9158
:10070000FF90EF90DF90CF90BF90AF9008954FEFA4
:1007100061E08BE20E945C04EA98E9E6F0E0808107
:100720008062808380818F7E8083EA9A5A9A78944F
:1007300008954FEF60E680E60E945C0460E08FE081
:100740000E94BE030E94870380E992E00E94F9099B
:1007500008950E949E0480EC0E9491040E94A104CE
:100760008FE493EC0197F1F700C0000081EA92E07A
:100770000E94F90908950E94A9030895CF93DF9379
:10078000D82FC62F0E949E0482E00E9491048D2FD4
:100790000E9491048C2F0E9491040E94A104DF9179
:1007A000CF910895CF93C82F0E949E0483E00E94AA
:1007B00091048C2F0E9491040E949604C82F0E94DD
:1007C000A1048C2FCF910895FF920F931F93CF9385
:1007D000DF938C01F62E0E949E0480E90E94910412
:1007E000FF2049F0E8010F0D111D0E949604899326
:1007F000C017D107D1F70E94A104DF91CF911F91BB
:100800000F91FF9008958F929F92AF92BF92CF92D7
:10081000DF92EF92FF920F931F93CF93DF93822E7D
:10082000932EA42EB52EC62ED72EE82EF92E0E947A
:100830009E0480E40E949104C0E0D0E08E01112764
:10084000000F111F000F111F000F111F282D392D30
:100850004A2D5B2D6C2D7D2D8E2D9F2D0E944D08D8
:10086000822F0E9491042196C830D10539F70E9449
:10087000A104DF91CF911F910F91FF90EF90DF9036
:10088000CF90BF90AF909F908F9008950E949E044C
:1008900081E80E9491040E94A1040895CF930E94D0
:1008A0009E0480EA0E9491040E949604C82F0E9430
:1008B000A1048C2FCF9108951F93CF93DF93182F0E
:1008C000D62FC42F0E949E0485E00E949104812FA0
:1008D0000E9491048D2F0E9491048C2F0E949104FC
:1008E0000E94A104DF91CF911F9108950F931F9350
:1008F00010E0000F111F000F111F000F111F0E94A9
:100900004D08822F1F910F910895229A219A279ABC
:10091000209A239881E58CBD82EB92E00E94F90930
:1009200008958EBD0DB407FEFDCF089580E00E94AE
:1009300091040DB407FEFDCF8EB508952F982F9822
:1009400008952F9A2F9A08950E9485040E949E046C
:1009500080E50E9491040E94A1048FE99FE0019725
:10096000F1F700C00000F2CFE0ECF0E0908195FFDD
:10097000FDCF8093C60080E090E008958091C00094
:100980008091C60090E008951092C50087E680939C
:10099000C400E1ECF0E08081806880838081886120
:1009A0008083E2ECF0E080818E6080836EEB74E007
:1009B00084EB94E00E94AE099093A7038093A60372
:1009C00083EC92E00E94F90908958CE08093B800CE
:1009D0008FEF8093BB0084E08093BC0085ED92E0B4
:1009E0000E94F90908958091BC0081700895ECEB94
:1009F000F0E0808180FDFDCF809100020895CF93CB
:100A0000DF93EC01ECEBF0E0908190FDFDCF609383
:100A1000910398819093920390FD13C0623088F007
:100A2000FE013196A3E9B3E06250262F30E02E5F3D
:100A30003F4FCE01820F931F21912D93E817F907A5
:100A4000D9F710928F0388EF8093000285EA809394
:100A5000BC00DF91CF910895ECEBF0E0808180FD48
:100A6000FDCF10928F0388EF8093000285EA809378
:100A7000BC000895ECEBF0E0208120FDFDCF20913B
:100A80008F0320FF0DC0662359F022E933E0A82F21
:100A9000B92FF90181918D938E2F821B8617D0F388
:100AA00080918F03817008951F920F920FB60F925D
:100AB00011240BB60F922F933F934F935F936F9335
:100AC0007F938F939F93AF93BF93EF93FF93E091A7
:100AD000B9008E2F90E0FC013897E135F10508F060
:100AE0005CC08827E458FF4F8F4F0C944308109246
:100AF0009003E091900380919103E81770F481E0F6
:100B00008E0F80939003F0E0EE56FC4F808180932F
:100B1000BB0085E88093BC0047C080918F03816053
:100B200080938F0384E98093BC003EC0E0919003E2
:100B300081E08E0F809390038091BB00F0E0EE5631
:100B4000FC4F80832091900330E08091910390E0EE
:100B500001972817390724F485EC8093BC0024C042
:100B600085E88093BC0020C086EE92E00E94F909DF
:100B70008091BB00E0919003F0E0EE56FC4F808343
:100B800080918F03816080938F0384E98093BC0000
:100B90000BC085EA8093BC0007C08091B9008093A8
:100BA000000284E08093BC00FF91EF91BF91AF9170
:100BB0009F918F917F916F915F914F913F912F9175
:100BC0000F900BBE0F900FBE0F901F9018950E94B4
:100BD000E5045A9A599A8DEE92E00E94F909089517
:100BE000CF93DF9300D0CDB7DEB79EE599831A820D
:100BF0008B8363E0CE0101960E94FF0487EC90E0B6
:100C00000197F1F700C000000F900F900F90DF9157
:100C1000CF910895E2E0F1E080818D7F8083089597
:100C2000E1E0F1E0808180618083A2E0B1E08C911D
:100C300080618C938081826080838FE39CE901973F
:100C4000F1F700C000000E940A0686E40E94F00549
:100C50009FEF27EA81E6915020408040E1F700C0F5
:100C600000000E94040780E00E94F0058EEF92E0F1
:100C70000E94F9090895E2E0F1E0808182608083BA
:100C800008950E94F0050895269A2E9A08958130BD
:100C9000910511F42E980895892B09F42E9A089540
:100CA0000F931F93CF93DF93C82F0E942F07D0E09D
:100CB00067E270E00E942F08C61BD10960919C0377
:100CC00070919D036C0F7D1F70939D0360939C0337
:100CD0008E01000F111F072E000C880B990B0E942C
:100CE000B50824E032E041E85BE30E9419090E9464
:100CF0007D08060F171F11231CF40E940A0602C06C
:100D00000E943B06C801992324F488279927801B59
:100D1000910B0E94F005D0939F03C0939E03DF9137
:100D2000CF911F910F910895FF920F931F93CF932F
:100D3000DF93C82FF62E0E942F0767E270E00E9413
:100D40002F088B010C2E000CDD0B80919A039091E3
:100D50009B039B01281B390BC9016FE770E00E94C0
:100D60002F08C61BD70B80919603909197038C0F89
:100D70009D1F90939703809396031C161D0644F4C1
:100D80001F141CF40E943B060AC00E940A0607C0FA
:100D90001F141CF40E940A0602C00E940A06CE011B
:100DA000880F991F880F991FD5FF03C091958195D2
:100DB00091090E94F00510939B0300939A03D0932E
:100DC0009903C0939803DF91CF911F910F91FF90EA
:100DD0000895CF93C82F8F3740F40E940A0661E030
:100DE0008FE78C1B0E9494060DC0853840F00E944E
:100DF0003B066FEF8CE78C0F0E94940603C080E0E7
:100E00000E94F005CF910895E1E0F1E080818860D3
:100E10008083808180628083808180648083E2E03F
:100E2000F1E080818F7B80838FE99FE00197F1F76C
:100E300000C00000808180648083E7E0F1E0808171
:100E400010829FEF29EF80E0915020408040E1F731
:100E500000C0000088E193E00E94F9090895E2E0F3
:100E6000F1E080818F7D80838081877F80838AE627
:100E70008A95F1F700C0A6E0B1E02C9180818860EE
:100E800080838AE68A95F1F700C08C919081906208
:100E9000908390E030E0322F2227821B930B08953D
:100EA000ECE7F0E0808180688083808180648083CB
:100EB000AAE7B0E08C9180628C938C9180688C93CF
:100EC0008C9184608C938C9182608C938C918160E6
:100ED0008C938C9180648C9380818E7F80838081C1
:100EE0008D7F808380818B7F80838081877F8083DB
:100EF00080818F7E80838DE293E00E94F9090895BE
:100F00008091780090917900089580981092A003C4
:100F10008EE393E00E94F90908950E9480070895E6
:100F20008091A0038F5F8093A00308958091A00318
:100F300008951092A00308950E9480072091A203B3
:100F40003091A3032115310599F4883770F480910D
:100F5000A1038F5F8093A1038330C9F481E090E007
:100F60009093A3038093A20308951092A103089580
:100F70002130310561F4893750F00E94900781E0FB
:100F800092E00E94DD021092A3031092A203089542
:100F9000E0E9F0E0808188608083E1E9F0E0808131
:100FA0008460808380818D7F808380818160808365
:100FB0008BE790E09093990080939800E1E7F0E050
:100FC00080818260808389E593E00E94F909089519
:100FD00008980E980C980A983F98109A169A149AA6
:100FE000129A479A8CE693E00E94F909089580B11D
:100FF00080958170089581E0069980E0089581E0F0
:10100000049980E0089581E0029980E0089581E0EC
:10101000379980E008950E94070890E00E944706F3
:101020000E94FB07882329F06FEF8EE10E9494064F
:101030000DC00E940308882329F061E08EE10E9420
:10104000940604C060E080E00E9494060E94F707C6
:101050000E9494020E94FF070E94A502089597FB38
:10106000072E16F4009407D077FD09D00E94690876
:1010700007FC05D03EF4909581959F4F089570959B
:1010800061957F4F0895EE0FFF1F881F8BBF07905C
:10109000F691E02D199497FB10F8169400080F9321
:1010A000083098F00850232F342F452F562F672FE4
:1010B000782F892F902DF4CF059497958795779564
:1010C000679557954795379527950A95AAF70F91F4
:1010D0000895AA1BBB1B51E107C0AA1FBB1FA6177F
:1010E000B70710F0A61BB70B881F991F5A95A9F7D1
:1010F00080959095BC01CD0108950E948408689464
:10110000B1110C94130908950E94F80888F09F57B4
:1011100098F0B92F9927B751B0F0E1F0660F771F1B
:10112000881F991F1AF0BA95C9F714C0B13091F011
:101130000E941209B1E008950C941209672F782FCC
:101140008827B85F39F0B93FCCF3869577956795D6
:10115000B395D9F73EF490958095709561957F4F42
:101160008F4F9F4F0895E89409C097FB3EF49095E8
:101170008095709561957F4F8F4F9F4F9923A9F070
:10118000F92F96E9BB279395F695879577956795FF
:10119000B795F111F8CFFAF4BB0F11F460FF1BC043
:1011A0006F5F7F4F8F4F9F4F16C0882311F096E9D6
:1011B00011C0772321F09EE8872F762F05C0662384
:1011C00071F096E8862F70E060E02AF09A95660F3D
:1011D000771F881FDAF7880F9695879597F90895F6
:1011E00057FD9058440F551F59F05F3F71F04795D8
:1011F000880F97FB991F61F09F3F79F087950895BD
:10120000121613061406551FF2CF4695F1DF08C0DB
:10121000161617061806991FF1CF869571056105F8
:1012200008940895E894BB2766277727CB0197F9A0
:1012300008950E942C090C949D090E948F0938F092
:101240000E94960920F0952311F00C9486090C94C5
:101250008C0911240C9413090E94F00870F3959FD7
:10126000C1F3950F50E0551F629FF001729FBB279D
:10127000F00DB11D639FAA27F00DB11DAA1F649F39
:101280006627B00DA11D661F829F2227B00DA11DEC
:10129000621F739FB00DA11D621F839FA00D611D72
:1012A000221F749F3327A00D611D231F849F600D93
:1012B000211D822F762F6A2F11249F5750409AF0BC
:1012C000F1F088234AF0EE0FFF1FBB1F661F771F48
:1012D000881F91505040A9F79E3F510580F00C9413
:1012E00086090C9413095F3FE4F3983ED4F3869586
:1012F00077956795B795F795E7959F5FC1F7FE2BB3
:10130000880F911D9695879597F9089597F99F678E
:1013100080E870E060E008959FEF80EC089500247D
:101320000A941616170618060906089500240A944A
:1013300012161306140605060895092E0394000CD0
:1013400011F4882352F0BB0F40F4BF2B11F460FF5F
:1013500004C06F5F7F4F8F4F9F4F08950F931F9370
:10136000CF93DF93009731F46115710519F480E094
:1013700090E03AC08B01EC016EE070E081E090E01B
:101380000E94290AFC01892B91F380E883830115CF
:10139000110571F01387028781E883838091A80388
:1013A0009091A903892B21F4F093A903E093A8035A
:1013B0002097C9F0D187C087838182608383809121
:1013C000AA039091AB03892B71F4F093AB03E093E4
:1013D000AA038091AC039091AD03892B21F4F09383
:1013E000AD03E093AC03CF01DF91CF911F910F913B
:1013F00008950F931F93CF93DF93E091AA03F09189
:10140000AB03238121FF1BC08C01D0E0C0E0F801B9
:1014100081918F016091AA037091AB03DB01189653
:10142000ED91FC911997882331F01995892B79F367
:10143000DFEFCFEFECCF8AE01995892B19F08FEF12
:101440009FEF02C08D2F9C2FDF91CF911F910F91A5
:1014500008950F931F93CF93DF93869F8001879FFB
:10146000100D969F100D1124C8010E94450AEC0131
:10147000009729F0A80160E070E00E94720BCE0195
:10148000DF91CF911F910F910895CF93DF93823019
:10149000910510F482E090E0E091B003F091B10387
:1014A00020E030E0C0E0D0E0309711F14081518180
:1014B00048175907C0F04817590761F48281938192
:1014C000209719F09B838A832BC09093B10380935C
:1014D000B00326C02115310519F04217530718F43F
:1014E0009A01BE01DF01EF010280F381E02DDCCF24
:1014F0002115310509F1281B390B2430310590F4F1
:1015000012968D919C9113976115710521F0FB0145
:101510009383828304C09093B1038093B003FD0151
:10152000329644C0FD01E20FF31F81939193225044
:1015300031092D933C933AC02091AE033091AF0313
:10154000232B41F420910D0230910E023093AF0312
:101550002093AE0320910B0230910C02211531052E
:1015600041F42DB73EB740910F0250911002241B59
:10157000350BE091AE03F091AF03E217F307A0F44F
:101580002E1B3F0B2817390778F0AC014E5F5F4FD9
:101590002417350748F04E0F5F1F5093AF03409359
:1015A000AE038193919302C0E0E0F0E0CF01DF91C0
:1015B000CF9108950F931F93CF93DF93009709F472
:1015C0008CC0FC013297138212820091B0031091FB
:1015D000B1030115110581F420813181820F931F20
:1015E0002091AE033091AF032817390779F5F093B6
:1015F000AF03E093AE0371C0D80140E050E0AE17F6
:10160000BF0750F412962D913C911397AD0121150F
:10161000310509F1D901F3CF9D01DA01338322832A
:1016200060817181860F971F8217930769F4EC011F
:1016300028813981260F371F2E5F3F4F318320834A
:101640008A819B8193838283452B29F4F093B10394
:10165000E093B00342C01396FC93EE931297ED0112
:10166000499159919E01240F351FE217F30771F438
:1016700080819181840F951F029611969C938E9381
:101680008281938113969C938E931297E0E0F0E011
:10169000D80112968D919C911397009719F0F8013B
:1016A0008C01F6CF8D919C9198012E5F3F4F820F58
:1016B000931F2091AE033091AF032817390769F4C7
:1016C000309729F41092B1031092B00302C0138234
:1016D00012821093AF030093AE03DF91CF911F915D
:1016E0000F910895DC0101C06D9341505040E0F727
:0616F0000895F894FFCFFD
:1016F600F8010201000000000000000000B2032013
:101706000043414E2072657365743A200D005057B0
:101716004D20696E697469616C697A65640D004370
:10172600414E207472616E736D6974696F6E2066C6
:1017360061696C65642E205472616E736D69747490
:10174600696E67206572726F720D0043414E207498
:1017560072616E736D6974696F6E206661696C651E
:10176600642E204D657373616765206C6F737420FA
:10177600696E206172626974726174696F6E0D00C0
:1017860043414E20696E697469616C697A65640DBE
:10179600004D435020696E697469616C697A6564AD
:1017A6000D0053504920696E697469616C697A65E8
:1017B600640D005541525420696E697469616C6903
:1017C6007A65640D0054574920696E697469616CC5
:1017D600697A65640D0054455354210D0044414314
:1017E60020696E697469616C697A65640D004D6F74
:1017F600746F722064726976657220696E697469A5
:10180600616C697A65640D00456E636F646572206C
:10181600696E697469616C697A65640D0041444357
:1018260020696E697469616C697A65640D00536339
:101836006F726520636F756E74657220696E697468
:1018460069616C697A65640D0054696D6572206919
:101856006E697469616C697A65640D00416E616CCC
:101866006F6720636F6E74726F6C6C657220696E41
:0C187600697469616C697A65640D00009A
:00000001FF
