:100000000C9460030C94B8050C947D030C947D0350
:100010000C947D030C947D030C947D030C947D0360
:100020000C947D030C947D030C947D030C947D0350
:100030000C947D030C9492050C947D030C947D0329
:100040000C947D030C947D030C947D030C947D0330
:100050000C947D030C947D030C947D030C947D0320
:100060000C947D030C947D030C947D030C947D0310
:1000700000000000005C00000C000C007C287C28C4
:1000800058DC68002410480028542840000C000068
:10009000007884008478000054385400107C1000EC
:1000A00080400000101010000040000060100C00A4
:1000B00038543800487C40004864580044542C00B0
:1000C0001C107C005C5424003854240064140C0080
:1000D00068542C0048543800004800008048000054
:1000E0001028440028282800442810000454080040
:1000F00038445C00781478007C5428003844280088
:100100007C4438007C5444007C140400384474005F
:100110007C107C00447C440020403C007C106C003F
:100120007C4040007C187C0078103C00384438004B
:100130007C1408003844B8007C146800485424003B
:10014000047C04007C407C003C603C007C307C00F3
:100150006C106C000C700C0064544C00007C44006B
:100160000C106000447C00000804080080808000BF
:1001700000040800304878007C48300030484800CF
:1001800030487C00306850001078140090A8780047
:100190007C08700050744000808074007C106800FF
:1001A000447C4000781078007808700030483000B7
:1001B000F82810003048F80078100800505828003F
:1001C000083C4800384078003840380078207800F3
:1001D0004830480098A0780048685800107884009B
:1001E000007C00008478100008040804000000006F
:1001F0000000005F00000007000700147F147F1458
:10020000242A7F2A1223130864623649552250009B
:1002100005030000001C2241000041221C00082AA6
:100220001C2A0808083E080800503000000808088A
:100230000808006060000020100804023E51494593
:100240003E00427F400042615149462141454B31C9
:100250001814127F1027454545393C4A4949300159
:10026000710905033649494936064949291E0036B0
:100270003600000056360000000814224114141401
:10028000141441221408000201510906324979412F
:100290003E7E1111117E7F494949363E414141223E
:1002A0007F4141221C7F494949417F090901013EA3
:1002B000414151327F0808087F00417F41002040C2
:1002C000413F017F081422417F404040407F0204AB
:1002D000027F7F0408107F3E4141413E7F090909AA
:1002E000063E4151215E7F09192946464949493157
:1002F00001017F01013F4040403F1F2040201F7F00
:100300002018207F631408146303047804036151E8
:1003100049454300007F4141020408102041417FCC
:100320000000040201020440404040400001020479
:100330000020545454787F4844443838444444207E
:10034000384444487F3854545418087E0901020840
:100350001454543C7F0804047800447D400020403D
:10036000443D00007F10284400417F40007C041879
:1003700004787C0804047838444444387C14141409
:1003800008081414187C7C080404084854545420A9
:10039000043F4440203C4040207C1C2040201C3C2A
:1003A0004030403C44281028440C5050503C446499
:1003B000544C44000836410000007F0000004136E4
:1003C000080002010302010000000000000000001C
:1003D000065F5F0600000000070700070700001423
:1003E0007F7F147F7F1400242E6B6B3A120000462F
:1003F0006630180C666200307A4F5D377A48000428
:1004000007030000000000001C3E634100000000E4
:1004100041633E1C000000082A3E1C1C3E2A0808BE
:10042000083E3E0808000000A0E060000000000850
:100430000808080808000000006060000000006074
:1004400030180C060301003E7F594D7F3E000042EC
:10045000427F7F40400000627359496F660000226E
:100460006349497F360000181C16137F7F10002750
:100470006745457D3900003C7E4B497930000003DB
:100480006371190F070000367F49497F3600000667
:100490004F49693F1E000000006C6C000000000026
:1004A000A0EC6C00000000081C3663410000001442
:1004B00014141414140000004163361C08000002D8
:1004C0000351590F0600003E7F415D5D1F1E007CF9
:1004D0007E13137E7C0000417F7F49497F36001CDC
:1004E0003E634141632200417F7F41637F1C0041A5
:1004F0007F7F495D416300417F7F491D0103001CEF
:100500003E6341517372007F7F08087F7F000000C7
:10051000417F7F41000000307040417F3F0100413A
:100520007F7F081C776300417F7F41406070007FC0
:100530007F060C067F7F007F7F060C187F7F001CE4
:100540003E6341633E1C00417F7F49090F06001E48
:100550003F21717F5E0000417F7F19396F46002681
:10056000674D597B32000003417F7F410300007FCC
:100570007F40407F7F00001F3F60603F1F00007F83
:100580007F3018307F7F0063771C081C776300077B
:100590004F78784F0700006773594D47637100002B
:1005A0007F7F41410000000103060C18306000000D
:1005B00041417F7F000000080C0603060C08008004
:1005C000808080808080800000030704000000207D
:1005D0007454543C784000413F7F44447C38003898
:1005E0007C44446C280000307848493F7F40003804
:1005F0007C54545C180000487E7F49030200009838
:10060000BCA4A4F87C0400417F7F08047C7800002F
:10061000447D7D4000000040C484FD7D0000004119
:100620007F7F10386C440000417F7F400000007CD9
:100630007C0C180C7C78007C7C04047C78000038EE
:100640007C44447C38000084FCF8A4243C18001846
:100650003C24A4F8FC8400447C78441C1800004826
:100660005C54547424000000043E7F442400003C89
:100670007C40403C7C40001C3C60603C1C00003CDA
:100680007C6030607C3C00446C3810386C44009CCA
:10069000BCA0A0FC7C00004C64745C4C64000008AE
:1006A000083E7741410000000000777700000041DC
:1006B00041773E0808000002030103020301000025
:1006C00011241FBECFEFD4E0DEBFCDBF14E0A0E009
:1006D000B1E0E6E2F4E202C005900D92AA39B1075A
:1006E000D9F724E0AAE9B4E001C01D92A93AB20703
:1006F000E1F70E9474050C9411120C940000109202
:100700009B0410929A04E0910201F091030181E2AE
:100710008083E0910201F09103011082E0910201D7
:10072000F09103018FE78083E0910201F0910301D2
:1007300082E28083E0910201F09103011082E09156
:100740000201F091030187E080830895CF93C82FC1
:10075000883048F08AEB91E09F938F930E94530D6D
:100760000F900F900AC00E947F03C0939B04E091FA
:100770000201F0910301C055C083CF91089580918B
:100780009B048F5F0E94A603089588234CF487ED95
:1007900091E09F938F930E94530D0F900F900895B7
:1007A00080939A04E0910201F091030191E2908319
:1007B000E0910201F09103018083E0910201F09148
:1007C00003018FE78083089580919A048F5F0E94D0
:1007D000C5030895CF93C62F0E94A6038C2F0E94B5
:1007E000C503CF9108950E94A60380E090E0E091B8
:1007F0000001F0910101E80FF91F10820196803885
:100800009105A9F708955695542F44275795479574
:10081000460F571FBC01CA019C5F0E941A0608952B
:10082000EF92FF920F931F93CF93DF9300E010E0BE
:10083000E12CF12C0FC0A801BE018E2D9F2D0E942E
:1008400003042196C038D105B1F70F5F1F4F083060
:10085000110519F0CE2DDF2DEECF0E947F03DF9121
:10086000CF911F910F91FF90EF900895E0910201B9
:10087000F09103018EEA8083E0910201F09103017F
:1008800081EA8083E0910201F09103018AED808387
:10089000E0910201F091030182E18083E091020185
:1008A000F091030188EC8083E0910201F091030153
:1008B00088EA8083E0910201F09103018FE3808355
:1008C000E0910201F091030185ED8083E091020146
:1008D000F091030180E88083E0910201F09103012F
:1008E00081E88083E0910201F091030180E580833B
:1008F000E0910201F091030189ED8083E091020112
:10090000F091030181E28083E0910201F091030103
:1009100080E28083E0910201F091030182E0808314
:10092000E0910201F09103018BED8083E0910201DF
:10093000F091030180E38083E0910201F0910301D3
:100940008DEA8083E0910201F09103011082E09131
:100950000201F091030184EA8083E0910201F091A9
:10096000030186EA8083E0910201F09103018FEA9E
:100970008083E0910201F091030180EB8083E0919C
:100980000201F09103011082E0910201F091030154
:1009900080E180830E94100408950F931F93CF93EA
:1009A000DF93082F80919A048837D8F080919B04B8
:1009B0008F5F0E94A60315C0FE01849140919B04A5
:1009C00050E060919A0470E090E00E9403048091EE
:1009D0009A048F5F0E94C5032196C017D10761F763
:1009E0000AC0F8E00F0280011124E801C953DC4F6E
:1009F00001531C4FE1CFDF91CF911F910F910895CB
:100A0000CF93DF93EC018881882339F021968052BF
:100A10000E94CD0489918111FACFDF91CF91089581
:100A20000E94000580919B048F5F0E94A603089599
:100A30000F931F93CF93DF93F8940E947F03C0E03E
:100A4000D4E00091000110910101CE010E94200626
:100A5000F801808380919A04282F30E02F5F3F4F68
:100A60002038310534F080919B048F5F0E94A603EB
:100A700003C08F5F0E94C5032196CF3FF7E0DF07D9
:100A800001F7C0910001D09101018FEF97E00E9422
:100A9000200688830E947F037894DF91CF911F9175
:100AA0000F910895B898B998BB9808958230910530
:100AB00060F426B330E0A90102C0559547958A95A8
:100AC000E2F7CA0181709927089526B330E0A901A1
:100AD00002C0559547958A95E2F731E020E040FD48
:100AE00030E0832F922F08950E94FE050E941C0C77
:100AF0000E9411060E9427060E94AA060E94520523
:100B00000E9436040E94FF0B0E94C9060E94FD0647
:100B10000E94A8080E943D0A78940E9410040E9436
:100B2000800AFDCF1F920F920FB60F9211242F93C0
:100B30003F934F935F936F937F938F939F93AF9365
:100B4000BF93EF93FF930E9418051DBC1CBCFF913F
:100B5000EF91BF91AF919F918F917F916F915F9135
:100B60004F913F912F910F900FBE0F901F901895AE
:100B70001F920F920FB60F9211242F933F934F9312
:100B80005F936F937F938F939F93AF93BF93EF93F5
:100B9000FF93CF93DF93CDB7DEB72A97DEBFCDBFEC
:100BA00061E0CE0101960E9442088B81813011F4F0
:100BB0000E94BC0A2A960FB6F894DEBF0FBECDBFC6
:100BC000DF91CF91FF91EF91BF91AF919F918F9165
:100BD0007F916F915F914F913F912F910F900FBE39
:100BE0000F901F9018955D9BFECF8CB980E090E030
:100BF00008955F9BFECF8CB190E0089510BC8FE10B
:100C000089B980B58E6880BD539A549A69EF75E0B2
:100C100083EF95E00E94080D90939E0480939D04BD
:100C2000089580B7806280BF85B7806885BF80E007
:100C300090E00895FC01F85E608380E090E0089504
:100C4000FC01F85E8081082E000C990B0895CF926C
:100C5000DF92EF92FF920F931F93CF93DF9388EF72
:100C600091E00E94690D0E94D30C7C010E94D80C77
:100C7000C12CD12CC0E0D0E00FE012E00E94D30CD8
:100C8000F601F85E808320812817A1F099279F93B1
:100C90008F931F922F93DF92CF921F930F930E94F7
:100CA000530D21968DB79EB708960FB6F8949EBF48
:100CB0000FBE8DBF9FEFC91AD90AC11488E0D806AC
:100CC000E9F6C7010E94D80C00E010E0E12CF12CFD
:100CD0000F2EF9E4CF2EF2E0DF2EF02D0E94D30C80
:100CE000F801F85E20812817B1F099279F938F9320
:100CF0001F922F931F930F93DF92CF920E94530D59
:100D00009FEFE91AF90A8DB79EB708960FB6F894C7
:100D10009EBF0FBE8DBF0F5F1F4F011598E01907D3
:100D2000E9F6FF92EF92DF93CF9387E892E09F93EB
:100D30008F930E94530D0F900F900F900F900F9074
:100D40000F90DF91CF911F910F91FF90EF90DF9067
:100D5000CF900895BA980895CF93DF931F92CDB79F
:100D6000DEB7E0910401F0910501808382E68A9567
:100D7000F1F70000E0910401F09105018081898381
:100D800000C000C00000898190E00F90DF91CF91FA
:100D9000089587B3806B87BBBE9881E58DB90895B0
:100DA0008FB9779BFECF089580E00E94D006779B95
:100DB000FECF8FB10895C4980895C49A08950E94F3
:100DC000C9060E94DB0680E50E94D0060E94DD066F
:100DD00089EF90E00197F1F700C00000F2CF0E9488
:100DE000DB0680EC0E94D0060E94DD068FE493ECC7
:100DF0000197F1F700C0000008950E94EF060895E2
:100E0000CF93DF93D82FC62F0E94DB0682E00E948B
:100E1000D0068D2F0E94D0068C2F0E94D0060E94F3
:100E2000DD06DF91CF910895CF93C82F0E94DB0696
:100E300083E00E94D0068C2F0E94D0060E94D40628
:100E4000C82F0E94DD068C2FCF910895FF920F933B
:100E50001F93CF93DF938C01F62E0E94DB0680E96F
:100E60000E94D006FF2049F0E8010F0D111D0E94DD
:100E7000D4068993C017D107D1F70E94DD06DF9110
:100E8000CF911F910F91FF9008958F929F92AF92F3
:100E9000BF92CF92DF92EF92FF920F931F93CF9367
:100EA000DF93822E932EA42EB52EC62ED72EE82E9B
:100EB000F92E0E94DB0680E40E94D006C0E0D0E05C
:100EC0008E011127000F111F000F111F000F111F9E
:100ED000282D392D4A2D5B2D6C2D7D2D8E2D9F2D8E
:100EE0000E946B0C822F0E94D0062196C830D1053B
:100EF00039F70E94DD06DF91CF911F910F91FF908E
:100F0000EF90DF90CF90BF90AF909F908F9008951B
:100F10000E94DB0681E80E94D0060E94DD0608954B
:100F2000CF930E94DB0680EA0E94D0060E94D4067E
:100F3000C82F0E94DD068C2FCF9108951F93CF9369
:100F4000DF93182FD62FC42F0E94DB0685E00E9466
:100F5000D006812F0E94D0068D2F0E94D0068C2FA4
:100F60000E94D0060E94DD06DF91CF911F91089567
:100F70000F931F9310E0000F111F000F111F000FA0
:100F8000111F0E946B0C822F1F910F91089580E317
:100F90000E94140786958695869591E08927817031
:100FA00090E0089580E30E94140784FF07C083EE59
:100FB00092E00E94690D8FEF9FEF089580E30E94F9
:100FC000140785FF07C08FE093E00E94690D8EEF44
:100FD0009FEF089580E090E00895EF92FF920F93C5
:100FE0001F93CF93DF937C0143E063E080E30E9493
:100FF0009E070E94C707892B91F1F70160816695D2
:101000006695669581E30E940007F701608162950D
:10101000660F607E82E30E940007F70161816F70B6
:1010200085E30E940007F7018181882399F08701F9
:101030000E5F1F4FC0E0D0E0F80161918F018C2F4F
:101040008A5C0E9400072196F701218130E0C217D7
:10105000D30794F30E94880780E090E006C00E94C6
:10106000D207009711F00E94D207DF91CF911F9114
:101070000F91FF90EF90089540E061E08CE20E94B4
:101080009E070895AF92BF92CF92DF92EF92FF92A8
:101090000F931F93CF93DF93CDB7DEB72A970FB689
:1010A000F894DEBF0FBECDBF5C0181E30E94140740
:1010B000D82E82E30E941407DD0CDD0CDD0C829536
:1010C00086958770D82A85E60E9414078F70C82EEF
:1010D00081F07E0183E0E80EF11C06E60C0D16E6B9
:1010E000812F0E941407F70181937F011F5F101366
:1010F000F7CF0E943C08D982CA828AE0FE0131966D
:10110000D50101900D928A95E1F7C5012A960FB697
:10111000F894DEBF0FBECDBFDF91CF911F910F912D
:10112000FF90EF90DF90CF90BF90AF9008954FEF7A
:1011300061E08BE20E949E078BB780648BBF85B70E
:101140008E7F85BF85B78D7F85BF8A9878940895F7
:101150004FEF60E680E60E949E0760E08FE00E940D
:1011600000070E94970808950F931F93CF93DF9372
:10117000CDB7DEB72A970FB6F894DEBF0FBECDBF4E
:101180008E010F5F1F4F8AE0F80111928A95E9F7EF
:1011900081E0898394E09A838B8387E090E00E94CA
:1011A000AC068C8386E090E00E94AC068D8383E0E1
:1011B00090E00E9456058E83C8010E94ED072A9692
:1011C0000FB6F894DEBF0FBECDBFDF91CF911F9158
:1011D0000F9108950F931F93CF93DF93CDB7DEB791
:1011E0002A970FB6F894DEBF0FBECDBF8E010F5FFA
:1011F0001F4F8AE0F80111928A95E9F781E089830F
:1012000085E08A8382E08B8384E090E00E94AC06D4
:101210008C8385E090E00E94AC068D8380E090E0B6
:101220000E9456058E8381E090E00E9456058F83D0
:10123000C8010E94ED072A960FB6F894DEBF0FBED4
:10124000CDBFDF91CF911F910F91089583EC99E06D
:101250000197F1F700C000000895E0910601F091B8
:10126000070120A531A5C901880F991F280F391F33
:10127000220F331FC90104968E0F9F1F0895A0915E
:101280000601B091070198968D919C919997FC0168
:10129000EE0FFF1FE80FF91FEE0FFF1FEA0FFB1FF6
:1012A00020853185232B89F40196FC01EE0FFF1F69
:1012B0008E0F9F1F880F991FFD01E80FF91F808176
:1012C000918190930701809306010895E0910601B2
:1012D000F091070180A591A59C01220F331F820F79
:1012E000931F880F991FE80FF91F0084F185E02DE7
:1012F000309709F009950895E0910601F0910701F2
:1013000082819381009721F09093070180930601D9
:101310000895E0910601F091070180A591A51816A6
:1013200019061CF4019791A780A70895E091060182
:10133000F091070180A591A5863091051CF40196D6
:1013400091A780A70895CF92DF92EF92FF920F931B
:101350001F93CF93DF93C12CD12CC7E4D3E00F2E82
:10136000F4E4EF2EF3E0FF2EF02D0AE413E0E09119
:101370000601F091070180A591A58C159D0539F412
:10138000FF92EF920E94530D0F900F9006C0DF93D3
:10139000CF930E94530D0F900F9080910601909172
:1013A0000701F601EE0FFF1FEC0DFD1DEE0FFF1FF5
:1013B000E80FF91F84819581009751F09F938F93D7
:1013C0001F930F930E94530D0F900F900F900F904B
:1013D0008FEFC81AD80A86E0C816D10441F6DF910B
:1013E000CF911F910F91FF90EF90DF90CF900895D4
:1013F000CF93DF93F8940E941004C0E0D0E0E09116
:101400000601F091070180A591A58C179D0729F48D
:101410008FE493E00E94000504C088E493E00E94FA
:1014200000058091060190910701FE01EE0FFF1F5C
:10143000EC0FFD1FEE0FFF1FE80FF91F8481958150
:10144000009711F00E9400058C2F8F5F0E94A60369
:101450002196C630D10599F67894DF91CF91089501
:101460009B01220F331F620F731F660F771F860FBA
:10147000971FFC015187408708950E94400CE6E8C1
:10148000F1E086E299E0938F828F91A380A397A3E6
:1014900086A3ECE5F1E02BE33BE03187208729E7E9
:1014A0003BE0378726872CEB3BE0358B248B938FF3
:1014B000828F91A380A32BE23BE037A326A3E2E334
:1014C000F1E023E43CE03187208726E53CE03787E4
:1014D0002687958B848B938F828F91A380A397A36C
:1014E00086A3E8E0F1E09187808797878687958BD0
:1014F000848B938F828F91A380A397A386A3089553
:101500000E94F80986E090E00E94AC0688971CF4DF
:101510000E9496091CC086E090E00E94AC06893CBF
:1015200091051CF00E94890912C087E090E00E949A
:10153000AC0688971CF40E947C0909C087E090E003
:101540000E94AC06893C910514F00E943F0983E09B
:1015500090E00E945605892B11F00E9466098BE7E6
:1015600092E90197F1F700C00000CACF10929C04E5
:10157000089580919C04089580919C048F5F8093CE
:101580009C040895CF93DF9300D01F92CDB7DEB7B0
:1015900080919C0443E0BE016F5F7F4F90E00E940A
:1015A000E30C0E94100487E394E00E941005CE0132
:1015B00001960E9410050F900F900F90DF91CF9130
:1015C00008950F931F93CF93DF93CDB7DEB72A977C
:1015D0000FB6F894DEBF0FBECDBFCE0101962AE054
:1015E000FC0111922A95E9F721E029832A8325E05D
:1015F0002B830E94ED070E94C20A0E94BF038091C4
:101600009C04853028F087E494E00E94100504C013
:101610008BE594E00E94100583E090E00E9456055F
:101620008C01112706C083EF91E00197F1F700C00C
:10163000000083E090E00E9456050817190799F70B
:101640002A960FB6F894DEBF0FBECDBFDF91CF91C3
:101650001F910F9108950E94C20A06C083EC99E081
:101660000197F1F700C0000083E090E00E9456056A
:10167000892BA1F708950F931F93CF93DF93CDB7D5
:10168000DEB72A970FB6F894DEBF0FBECDBF10921B
:101690009C04CE0101962AE0FC0111922A95E9F7FB
:1016A00021E0298323E02A832B8324E02C8325E077
:1016B0002D830E94ED0709EE13E087E893E101977F
:1016C000F1F700C000000E94EA080E94B40801502F
:1016D000110999F7F8940E94E10A78942A960FB6B6
:1016E000F894DEBF0FBECDBFDF91CF911F910F9158
:1016F0000895CF93DF93CDB7DEB764970FB6F89414
:10170000DEBF0FBECDBF10929C04CE0101962AE031
:10171000FC0111922A95E9F721E029832A8324E02C
:101720002B830E94ED0789EE93E0E7E8F3E1319720
:10173000F1F700C000000197C1F787E794E00E942D
:10174000690DCE010B962AE0FC0111922A95E9F76A
:1017500021E02B872C8725E02D870E94ED07F89448
:101760000E94E10A789464960FB6F894DEBF0FBE2B
:10177000CDBFDF91CF910895CF93DF93CDB7DEB783
:1017800064970FB6F894DEBF0FBECDBF10929C04D5
:10179000CE0101962AE0FC0111922A95E9F721E099
:1017A00029832A8326E02B830E94ED0789EE93E0AC
:1017B000E7E8F3E13197F1F700C000000197C1F7C6
:1017C00087E794E00E94690DCE010B962AE0FC01A8
:1017D00011922A95E9F721E02B872C8725E02D87A8
:1017E0000E94ED07F8940E94E10A789464960FB67F
:1017F000F894DEBF0FBECDBFDF91CF9108958FB5B6
:101800008E7F8FBD8FB58D7F8FBD8EB588608EBD6D
:101810008EB58F7E8EBD8EB584608EBD8EB58D7F6C
:101820008EBD8EB581608EBD80E890E09BBD8ABD87
:1018300089B7806489BF08958C9AABE8B0E08C9139
:1018400082608C93EAE8F0E0808188608083808108
:10185000806180838C9180688C9380E090E7909386
:101860008700809386008081816080838081826090
:1018700080838FEF9FEF9093810080938000089585
:101880008B9A939A089593980E947F030E94100464
:101890008DE794E00E9410052FEF8FEF9EE021501E
:1018A00080409040E1F700C000000895939A0E94A4
:1018B0007F030E9410048CE894E00E9410052FEF33
:1018C0008FEF9EE0215080409040E1F700C0000083
:1018D000089597FB10F8169400080F93083098F0BD
:1018E0000850232F342F452F562F672F782F892FFD
:1018F000902DF4CF05949795879577956795579593
:101900004795379527950A95AAF70F9108958F92D5
:101910009F92AF92BF92CF92DF92EF92FF92CF93BE
:10192000DF93EC01688179818A819B816115710562
:101930008105910521F464E279ED8BE597E02DE1D5
:1019400033EF41E050E00E94771149015A019B01B9
:10195000AC01A7EAB1E40E9496116B017C01ACEEE8
:10196000B4EFA50194010E94A411DC01CB018C0D00
:101970009D1DAE1DBF1DB7FF03C00197A109B04853
:1019800088839983AA83BB839F77DF91CF91FF9050
:10199000EF90DF90CF90BF90AF909F908F90089581
:1019A0000E94870C089580EB91E00E94870C0895B7
:1019B000A0E0B0E08093B0019093B101A093B20198
:1019C000B093B3010895BB274A3031F4992322F430
:1019D000BDE2909581959F4F0C94EF0CBB27FB01C6
:1019E0005527AA27880F991FAA1FA41710F0A41B18
:1019F00083955051B9F7A05DAA3308F0A95DA19372
:101A0000009779F7B111B1931192CB010C94D110D9
:101A10000F931F93CF93DF93009731F461157105F6
:101A200019F480E090E03AC08B01EC016EE070E0C8
:101A300081E090E00E946B0FFC01892B91F380E81C
:101A400083830115110571F01387028781E8838371
:101A500080919F049091A004892B21F4F093A0041D
:101A6000E0939F042097C9F0D187C087838182606B
:101A700083838091A1049091A204892B71F4F09347
:101A8000A204E093A1048091A3049091A404892B63
:101A900021F4F093A404E093A304CF01DF91CF914C
:101AA0001F910F910895A0E0B0E0E9E5FDE00C94EE
:101AB000B911AE014B5F5F4FFA0161917191AF01B6
:101AC0008091A1049091A2040E94990DE2E00C94EF
:101AD000D5110F931F93CF93DF93E091A104F09161
:101AE000A204238121FF1BC08C01D0E0C0E0F801DB
:101AF00081918F016091A1047091A204DB0118967D
:101B0000ED91FC911997882331F00995892B79F390
:101B1000DFEFCFEFECCF8AE00995892B19F08FEF3B
:101B20009FEF02C08D2F9C2FDF91CF911F910F91BE
:101B30000895ACE0B0E0EFE9FDE00C94A9117C0160
:101B40006B018A01FC0117821682838181FFBDC16E
:101B5000CE0101964C01F7019381F60193FD859129
:101B600093FF81916F01882309F4ABC1853239F469
:101B700093FD859193FF81916F01853229F4B7011F
:101B800090E00E94E110E7CF512C312C20E0203270
:101B9000A0F48B3269F030F4803259F0833269F46A
:101BA00020612CC08D3239F0803339F4216026C099
:101BB0002260246023C0286021C027FD27C030EDAB
:101BC000380F3A3078F426FF06C0FAE05F9E300DF9
:101BD0001124532E13C08AE0389E300D1124332E69
:101BE00020620CC08E3221F426FD6BC1206406C039
:101BF0008C3611F4206802C0883641F4F60193FD5A
:101C0000859193FF81916F018111C1CF982F9F7DA5
:101C10009554933028F40C5F1F4FFFE3F9830DC0F8
:101C2000833631F0833771F0833509F05BC022C011
:101C3000F801808189830E5F1F4F44244394512C07
:101C4000540115C03801F2E06F0E711CF801A0803C
:101C5000B18026FF03C0652D70E002C06FEF7FEFFB
:101C6000C5012C870E94C6102C0183012C852F777B
:101C7000222E17C03801F2E06F0E711CF801A0800F
:101C8000B18026FF03C0652D70E002C06FEF7FEFCB
:101C9000C5012C870E94B4102C012C852068222EAF
:101CA000830123FC1BC0832D90E048165906B0F435
:101CB000B70180E290E00E94E1103A94F4CFF50180
:101CC00027FC859127FE81915F01B70190E00E947A
:101CD000E11031103A94F1E04F1A510841145104C7
:101CE00071F7E5C0843611F0893639F5F80127FF20
:101CF00007C060817181828193810C5F1F4F08C092
:101D000060817181072E000C880B990B0E5F1F4FAD
:101D10002F76722E97FF09C09095809570956195EA
:101D20007F4F8F4F9F4F2068722E2AE030E0A40132
:101D30000E941911A82EA81844C0853729F42F7EB7
:101D4000B22E2AE030E025C0F22FF97FBF2E8F3669
:101D5000C1F018F4883579F0B4C0803719F08837AD
:101D600021F0AFC02F2F2061B22EB4FE0DC08B2DFD
:101D70008460B82E09C024FF0AC09F2F9660B92E38
:101D800006C028E030E005C020E130E002C020E1DC
:101D900032E0F801B7FE07C06081718182819381D2
:101DA0000C5F1F4F06C06081718180E090E00E5F84
:101DB0001F4FA4010E941911A82EA818FB2DFF7710
:101DC0007F2E76FE0BC0372D3E7FA51450F474FE97
:101DD0000AC072FC08C0372D3E7E05C0BA2C372DD4
:101DE00003C0BA2C01C0B52C34FF0DC0FE01EA0DB2
:101DF000F11D8081803311F4397E09C032FF06C0A5
:101E0000B394B39404C0832F867809F0B39433FD60
:101E100013C030FF06C05A2CB31418F4530C5B18CF
:101E2000B32CB31468F4B70180E290E03C870E94C1
:101E3000E110B3943C85F5CFB31410F43B1801C006
:101E4000312C34FF12C0B70180E390E03C870E9440
:101E5000E1103C8532FF17C031FD03C088E790E0F8
:101E600002C088E590E0B7010CC0832F867859F056
:101E700031FF02C08BE201C080E237FD8DE2B70185
:101E800090E00E94E110A51438F4B70180E390E0DF
:101E90000E94E1105A94F7CFAA94F401EA0DF11DC3
:101EA0008081B70190E00E94E110A110F5CF3320AE
:101EB00009F451CEB70180E290E00E94E1103A941B
:101EC000F6CFF7018681978102C08FEF9FEF2C96A6
:101ED000E2E10C94C5110F931F93CF93DF93869F7C
:101EE0008001879F100D969F100D1124C8010E943C
:101EF000870FEC01009729F0A80160E070E00E94D4
:101F0000BF10CE01DF91CF911F910F910895CF9314
:101F1000DF938230910510F482E090E0E091A70415
:101F2000F091A80420E030E0C0E0D0E0309711F15B
:101F30004081518148175907C0F04817590761F48B
:101F400082819381209719F09B838A832BC0909381
:101F5000A8048093A70426C02115310519F0421763
:101F6000530718F49A01BE01DF01EF010280F381EB
:101F7000E02DDCCF2115310509F1281B390B243068
:101F8000310590F412968D919C911397611571050E
:101F900021F0FB019383828304C09093A804809373
:101FA000A704FD01329644C0FD01E20FF31F8193A7
:101FB0009193225031092D933C933AC02091A5046E
:101FC0003091A604232B41F42091B6013091B70142
:101FD0003093A6042093A5042091B4013091B5015B
:101FE0002115310541F42DB73EB74091B80150910C
:101FF000B901241B350BE091A504F091A604E2176A
:10200000F307A0F42E1B3F0B2817390778F0AC011B
:102010004E5F5F4F2417350748F04E0F5F1F5093F8
:10202000A6044093A5048193919302C0E0E0F0E000
:10203000CF01DF91CF9108950F931F93CF93DF933B
:10204000009709F48CC0FC01329713821282009130
:10205000A7041091A8040115110581F42081318194
:10206000820F931F2091A5043091A60428173907E9
:1020700079F5F093A604E093A50471C0D80140E07F
:1020800050E0AE17BF0750F412962D913C91139774
:10209000AD012115310509F1D901F3CF9D01DA0117
:1020A0003383228360817181860F971F8217930784
:1020B00069F4EC0128813981260F371F2E5F3F4FCD
:1020C000318320838A819B8193838283452B29F4EA
:1020D000F093A804E093A70442C01396FC93EE93F8
:1020E0001297ED01499159919E01240F351FE21776
:1020F000F30771F480819181840F951F02961196E8
:102100009C938E938281938113969C938E931297C6
:10211000E0E0F0E0D80112968D919C911397009722
:1021200019F0F8018C01F6CF8D919C9198012E5FEA
:102130003F4F820F931F2091A5043091A6042817CA
:10214000390769F4309729F41092A8041092A70473
:1021500002C0138212821093A6040093A504DF919B
:10216000CF911F910F910895FC010590615070402F
:102170000110D8F7809590958E0F9F1F0895DC0170
:1021800001C06D9341505040E0F70895FC0161504B
:10219000704001900110D8F7809590958E0F9F1F89
:1021A0000895DC01FC01672F71917723E1F73297E5
:1021B00004C07C916D9370836291AE17BF07C8F322
:1021C00008950F931F93CF93DF93FB01238121FD8C
:1021D00003C08FEF9FEF28C022FF16C046815781B2
:1021E000248135814217530744F4A081B1819D01B8
:1021F0002F5F3F4F318320838C93268137812F5F60
:102200003F4F3783268310C0EB01092F182F00841E
:10221000F185E02D0995892BE1F68E819F8101964C
:102220009F838E83812F902FDF91CF911F910F91EC
:102230000895FA01AA27283051F1203181F1E8945C
:102240006F936E7F6E5F7F4F8F4F9F4FAF4FB1E0A9
:102250003ED0B4E03CD0670F781F891F9A1FA11DA4
:10226000680F791F8A1F911DA11D6A0F711D811DA5
:10227000911DA11D20D009F468943F912AE0269F6A
:1022800011243019305D3193DEF6CF010895462FC9
:102290004770405D4193B3E00FD0C9F7F6CF462FAA
:1022A0004F70405D4A3318F0495D31FD4052419313
:1022B00002D0A9F7EACFB4E0A695979587957795D0
:1022C0006795BA95C9F700976105710508959B0157
:1022D000AC010A2E06945795479537952795BA95E0
:1022E000C9F7620F731F841F951FA01D0895052E47
:1022F00097FB1EF400940E948E1157FD07D00E9498
:10230000E01107FC03D04EF40C948E1150954095CB
:10231000309521953F4F4F4F5F4F08959095809591
:10232000709561957F4F8F4F9F4F08950E940212C5
:10233000A59F900DB49F900DA49F800D911D112419
:102340000895B7FF0C9496110E949611821B930B6F
:1023500008952F923F924F925F926F927F928F9249
:102360009F92AF92BF92CF92DF92EF92FF920F9324
:102370001F93CF93DF93CDB7DEB7CA1BDB0B0FB62E
:10238000F894DEBF0FBECDBF09942A8839884888EB
:102390005F846E847D848C849B84AA84B984C88481
:1023A000DF80EE80FD800C811B81AA81B981CE0F78
:1023B000D11D0FB6F894DEBF0FBECDBFED0108955D
:1023C000A1E21A2EAA1BBB1BFD010DC0AA1FBB1F39
:1023D000EE1FFF1FA217B307E407F50720F0A21BAB
:1023E000B30BE40BF50B661F771F881F991F1A9418
:1023F00069F760957095809590959B01AC01BD0142
:10240000CF010895A29FB001B39FC001A39F700D9B
:10241000811D1124911DB29F700D811D1124911DEC
:062420000895F894FFCFBF
:102426000012001000148601510386015C030000AF
:1024360000006B03000000007A0300000000880320
:1024460000000000960300000000A1030000000049
:102456000000AF038601BC0300000000C6030000B5
:102466000000000000000000000000000000000066
:10247600000000000000000000000000D1038601FB
:10248600DC0300000000EB0300000000FB0300007B
:10249600000000000000000000000000000007042B
:1024A6000000000000001C04000025045C01000080
:1024B6002B04320100003204080100000000000075
:1024C6000000000000000000000000000000000006
:1024D600010000000000A90420004572726F723AE4
:1024E600206C696E65206269676765722074686131
:1024F6006E20372E0A0D004572726F723A20636F96
:102506006C756D6E20626967676572207468616EAE
:10251600203132372E0A0D005374617274696E676A
:10252600205352414D20746573742E2E2E0D005784
:1025360072697465207068617365206572726F7266
:102546003A206578745F72616D5B2534645D203D69
:102556002025303258202873686F756C64206265B8
:102566002025303258290A0D005265747269657645
:10257600616C207068617365206572726F723A20B3
:102586006578745F72616D5B2534645D203D20253E
:10259600303258202873686F756C64206265202578
:1025A600303258290A0D005352414D207465737418
:1025B60020636F6D706C657465642077697468203C
:1025C6000D0A253464206572726F727320696E205D
:1025D600777269746520706861736520616E642026
:1025E6000D0A253464206572726F727320696E203D
:1025F60072657472696576616C2070686173650ACC
:102606000A0D0043414E207472616E736D697469E0
:102616006F6E206661696C65642E205472616E73FC
:102626006D697474696E67206572726F720D00430E
:10263600414E207472616E736D6974696F6E2066A7
:1026460061696C65642E204D657373616765206CE6
:102656006F737420696E2061726269747261746945
:102666006F6E0D003E200020200025730D0A003EEF
:10267600004A6F6B65206D656E753A004279676733
:1026860065726E206973206C692D006B652062652A
:10269600696E6720626F74682000746865206465DF
:1026A6007465637469766500616E6420746865207C
:1026B6006D7572642D006572657220696E206120E9
:1026C600006372696D65206D6F7669652E20004323
:1026D6006F66666565206D656E753A00436F666662
:1026E6006565206F6E00436F66666565206F66667A
:1026F6000047616D65206D656E753A00416E616CCF
:102706006F6720636F6E74726F6C004469676974DB
:10271600616C20636F6E74726F6C00554450206359
:102726006F6E74726F6C004C617374206E756D629F
:102736006572206F66206661696C7300546F702045
:102746006D656E750047616D652100436F66666550
:1027560065004A6F6B65004E756D626572206F6627
:10276600206661696C7300546F6F206261642E206D
:1027760054727920616761696E3F004E6963652115
:10278600204B6565702075702074686520676F6FD3
:102796006420776F726B00546573740D0042726526
:1027A60077696E6720636F66666565005368757442
:0A27B60074696E6720646F776E008F
:00000001FF
